{
  "contractName": "Freeelio",
  "abi": [
    {
      "constant": true,
      "inputs": [],
      "name": "owner",
      "outputs": [
        {
          "name": "",
          "type": "address"
        }
      ],
      "payable": false,
      "stateMutability": "view",
      "type": "function"
    },
    {
      "inputs": [],
      "payable": false,
      "stateMutability": "nonpayable",
      "type": "constructor"
    },
    {
      "payable": false,
      "stateMutability": "nonpayable",
      "type": "fallback"
    },
    {
      "anonymous": false,
      "inputs": [
        {
          "indexed": true,
          "name": "_patron",
          "type": "address"
        },
        {
          "indexed": true,
          "name": "_projectAddr",
          "type": "address"
        },
        {
          "indexed": false,
          "name": "_contribution",
          "type": "uint256"
        }
      ],
      "name": "ContributionLog",
      "type": "event"
    },
    {
      "anonymous": false,
      "inputs": [
        {
          "indexed": true,
          "name": "_projectOwner",
          "type": "address"
        },
        {
          "indexed": true,
          "name": "_projectAddr",
          "type": "address"
        },
        {
          "indexed": false,
          "name": "_pledgedAmount",
          "type": "uint256"
        },
        {
          "indexed": false,
          "name": "_projectName",
          "type": "bytes32"
        }
      ],
      "name": "NewProjectLog",
      "type": "event"
    },
    {
      "anonymous": false,
      "inputs": [
        {
          "indexed": true,
          "name": "_ProviderAddr",
          "type": "address"
        },
        {
          "indexed": true,
          "name": "_projectAddr",
          "type": "address"
        },
        {
          "indexed": false,
          "name": "_ProviderName",
          "type": "bytes32"
        },
        {
          "indexed": false,
          "name": "_description",
          "type": "bytes32"
        },
        {
          "indexed": false,
          "name": "_imageUrl",
          "type": "bytes32"
        },
        {
          "indexed": false,
          "name": "_apiURI",
          "type": "bytes32"
        }
      ],
      "name": "NewProviderLog",
      "type": "event"
    },
    {
      "anonymous": false,
      "inputs": [
        {
          "indexed": true,
          "name": "_projectAddr",
          "type": "address"
        },
        {
          "indexed": true,
          "name": "_providerAddr",
          "type": "address"
        },
        {
          "indexed": false,
          "name": "_hash",
          "type": "bytes32"
        }
      ],
      "name": "NewReadingLog",
      "type": "event"
    },
    {
      "constant": false,
      "inputs": [
        {
          "name": "_pledgedAmount",
          "type": "uint256"
        },
        {
          "name": "_projectName",
          "type": "bytes32"
        }
      ],
      "name": "createProject",
      "outputs": [
        {
          "name": "projectAddr",
          "type": "address"
        }
      ],
      "payable": false,
      "stateMutability": "nonpayable",
      "type": "function"
    },
    {
      "constant": false,
      "inputs": [
        {
          "name": "_projectAddr",
          "type": "address"
        },
        {
          "name": "_providerAddr",
          "type": "address"
        },
        {
          "name": "_name",
          "type": "bytes32"
        },
        {
          "name": "_description",
          "type": "bytes32"
        },
        {
          "name": "_imageUrl",
          "type": "bytes32"
        },
        {
          "name": "_apiURI",
          "type": "bytes32"
        }
      ],
      "name": "addProvider",
      "outputs": [
        {
          "name": "",
          "type": "bool"
        }
      ],
      "payable": false,
      "stateMutability": "nonpayable",
      "type": "function"
    },
    {
      "constant": false,
      "inputs": [
        {
          "name": "_projectAddr",
          "type": "address"
        },
        {
          "name": "_providerAddr",
          "type": "address"
        },
        {
          "name": "_reading",
          "type": "uint32[5][]"
        }
      ],
      "name": "addProjectReading",
      "outputs": [
        {
          "name": "success",
          "type": "bool"
        }
      ],
      "payable": false,
      "stateMutability": "nonpayable",
      "type": "function"
    },
    {
      "constant": false,
      "inputs": [
        {
          "name": "_projectAddr",
          "type": "address"
        }
      ],
      "name": "contribute",
      "outputs": [
        {
          "name": "success",
          "type": "bool"
        }
      ],
      "payable": true,
      "stateMutability": "payable",
      "type": "function"
    },
    {
      "constant": false,
      "inputs": [],
      "name": "kill",
      "outputs": [],
      "payable": false,
      "stateMutability": "nonpayable",
      "type": "function"
    }
  ],
  "bytecode": "0x6060604052341561000f57600080fd5b336000806101000a81548173ffffffffffffffffffffffffffffffffffffffff021916908373ffffffffffffffffffffffffffffffffffffffff160217905550611a878061005e6000396000f300606060405260043610610078576000357c0100000000000000000000000000000000000000000000000000000000900463ffffffff1680631558742b1461008557806341c0e1b51461012957806373e888fd1461013e57806379c801f9146101845780638da5cb5b146101f4578063e6e12d1214610249575b341561008357600080fd5b005b341561009057600080fd5b61010f600480803573ffffffffffffffffffffffffffffffffffffffff1690602001909190803573ffffffffffffffffffffffffffffffffffffffff1690602001909190803560001916906020019091908035600019169060200190919080356000191690602001909190803560001916906020019091905050610335565b604051808215151515815260200191505060405180910390f35b341561013457600080fd5b61013c61056f565b005b61016a600480803573ffffffffffffffffffffffffffffffffffffffff16906020019091905050610604565b604051808215151515815260200191505060405180910390f35b341561018f57600080fd5b6101b260048080359060200190919080356000191690602001909190505061073c565b604051808273ffffffffffffffffffffffffffffffffffffffff1673ffffffffffffffffffffffffffffffffffffffff16815260200191505060405180910390f35b34156101ff57600080fd5b6102076108a8565b604051808273ffffffffffffffffffffffffffffffffffffffff1673ffffffffffffffffffffffffffffffffffffffff16815260200191505060405180910390f35b341561025457600080fd5b61031b600480803573ffffffffffffffffffffffffffffffffffffffff1690602001909190803573ffffffffffffffffffffffffffffffffffffffff169060200190919080359060200190820180359060200190808060200260200160405190810160405280939291908181526020016000905b8282101561030d57848483905060a0020160058060200260405190810160405280929190826005602002808284378201915050505050815260200190600101906102c8565b5050505050919050506108cd565b604051808215151515815260200191505060405180910390f35b60008060008773ffffffffffffffffffffffffffffffffffffffff161415151561035e57600080fd5b600060010286600019161415151561037557600080fd5b600060010285600019161415151561038c57600080fd5b60006001028460001916141515156103a357600080fd5b60006001028360001916141515156103ba57600080fd5b8790508073ffffffffffffffffffffffffffffffffffffffff16639125218d620f424089898989896040518763ffffffff167c0100000000000000000000000000000000000000000000000000000000028152600401808673ffffffffffffffffffffffffffffffffffffffff1673ffffffffffffffffffffffffffffffffffffffff168152602001856000191660001916815260200184600019166000191681526020018360001916600019168152602001826000191660001916815260200195505050505050602060405180830381600088803b151561049b57600080fd5b87f115156104a857600080fd5b505050506040518051905015156104c25760009150610564565b8773ffffffffffffffffffffffffffffffffffffffff168773ffffffffffffffffffffffffffffffffffffffff167fa93d84a82286928f0be81305e4afdd3270efa82ccc5909eaf094ebf36753f4768888888860405180856000191660001916815260200184600019166000191681526020018360001916600019168152602001826000191660001916815260200194505050505060405180910390a3600191505b509695505050505050565b6000809054906101000a900473ffffffffffffffffffffffffffffffffffffffff1673ffffffffffffffffffffffffffffffffffffffff163373ffffffffffffffffffffffffffffffffffffffff161415156105ca57600080fd5b6000809054906101000a900473ffffffffffffffffffffffffffffffffffffffff1673ffffffffffffffffffffffffffffffffffffffff16ff5b6000808290508073ffffffffffffffffffffffffffffffffffffffff16632302440834620186a090336040518463ffffffff167c0100000000000000000000000000000000000000000000000000000000028152600401808273ffffffffffffffffffffffffffffffffffffffff1673ffffffffffffffffffffffffffffffffffffffff1681526020019150506020604051808303818589803b15156106a957600080fd5b88f115156106b657600080fd5b50505050506040518051905015156106cd57600080fd5b8273ffffffffffffffffffffffffffffffffffffffff163373ffffffffffffffffffffffffffffffffffffffff167f188fbedff25e3538bc31bbda15d084585f05d2a0e684e7c07131e63a5b87a80a346040518082815260200191505060405180910390a36001915050919050565b60008060009054906101000a900473ffffffffffffffffffffffffffffffffffffffff1673ffffffffffffffffffffffffffffffffffffffff163373ffffffffffffffffffffffffffffffffffffffff1614151561079957600080fd5b6000831115156107a857600080fd5b6000602060ff161115156107bb57600080fd5b3083836107c6610b6b565b808473ffffffffffffffffffffffffffffffffffffffff1673ffffffffffffffffffffffffffffffffffffffff16815260200183815260200182600019166000191681526020019350505050604051809103906000f080151561082857600080fd5b90508073ffffffffffffffffffffffffffffffffffffffff163073ffffffffffffffffffffffffffffffffffffffff167fece3bb7c30386c7553effe7a6061bc94952c7196888a352f547e13b3f958fddf85856040518083815260200182600019166000191681526020019250505060405180910390a380905092915050565b6000809054906101000a900473ffffffffffffffffffffffffffffffffffffffff1681565b60008060008073ffffffffffffffffffffffffffffffffffffffff168673ffffffffffffffffffffffffffffffffffffffff161415151561090d57600080fd5b600073ffffffffffffffffffffffffffffffffffffffff168573ffffffffffffffffffffffffffffffffffffffff161415151561094957600080fd5b6000845111151561095957600080fd5b8591508173ffffffffffffffffffffffffffffffffffffffff166345c0c385620f424087876040518463ffffffff167c0100000000000000000000000000000000000000000000000000000000028152600401808373ffffffffffffffffffffffffffffffffffffffff1673ffffffffffffffffffffffffffffffffffffffff168152602001806020018281038252838181518152602001915080516000925b81841015610a4457828490602001906020020151600560200280838360005b83811015610a33578082015181840152602081019050610a18565b5050505090500192600101926109f9565b925050509350505050602060405180830381600088803b1515610a6657600080fd5b87f11515610a7357600080fd5b50505050604051805190501515610a8957600080fd5b83604051808280516000925b81841015610ae057828490602001906020020151600560200280838360005b83811015610acf578082015181840152602081019050610ab4565b505050509050019260010192610a95565b92505050915050604051809103902090508473ffffffffffffffffffffffffffffffffffffffff168673ffffffffffffffffffffffffffffffffffffffff167fcac88ab3a1e0429cc8757c641eedacec89676c3a28a73281ef3b96660ed501678360405180826000191660001916815260200191505060405180910390a36001925050509392505050565b604051610ee080610b7c8339019056006060604052341561000f57600080fd5b604051606080610ee083398101604052808051906020019091908051906020019091908051906020019091905050826000806101000a81548173ffffffffffffffffffffffffffffffffffffffff021916908373ffffffffffffffffffffffffffffffffffffffff1602179055508160018190555080600281600019169055506000600560006101000a81548160ff021916908360028111156100ae57fe5b0217905550505050610e1b806100c56000396000f3006060604052600436106100ba576000357c0100000000000000000000000000000000000000000000000000000000900463ffffffff16806323024408146100c757806331b8ff8e1461010d57806345c0c385146101225780634fe5bea7146101ef5780637943210e1461023c57806387f0f785146102655780639125218d1461027a5780639a33e300146102ff578063a4475ce414610330578063ad2c566e14610385578063c19d93fb14610403578063f0d3e74f1461043a575b34156100c557600080fd5b005b6100f3600480803573ffffffffffffffffffffffffffffffffffffffff16906020019091905050610487565b604051808215151515815260200191505060405180910390f35b341561011857600080fd5b61012061053a565b005b341561012d57600080fd5b6101d5600480803573ffffffffffffffffffffffffffffffffffffffff169060200190919080359060200190820180359060200190808060200260200160405190810160405280939291908181526020016000905b828210156101c757848483905060a002016005806020026040519081016040528092919082600560200280828437820191505050505081526020019060010190610182565b5050505050919050506105f1565b604051808215151515815260200191505060405180910390f35b34156101fa57600080fd5b610226600480803573ffffffffffffffffffffffffffffffffffffffff1690602001909190505061080f565b6040518082815260200191505060405180910390f35b341561024757600080fd5b61024f61085e565b6040518082815260200191505060405180910390f35b341561027057600080fd5b610278610864565b005b341561028557600080fd5b6102e5600480803573ffffffffffffffffffffffffffffffffffffffff169060200190919080356000191690602001909190803560001916906020019091908035600019169060200190919080356000191690602001909190505061091b565b604051808215151515815260200191505060405180910390f35b341561030a57600080fd5b610312610b0d565b60405180826000191660001916815260200191505060405180910390f35b341561033b57600080fd5b610343610b13565b604051808273ffffffffffffffffffffffffffffffffffffffff1673ffffffffffffffffffffffffffffffffffffffff16815260200191505060405180910390f35b341561039057600080fd5b6103c5600480803573ffffffffffffffffffffffffffffffffffffffff16906020019091908035906020019091905050610b38565b6040518082600560200280838360005b838110156103f05780820151818401526020810190506103d5565b5050505090500191505060405180910390f35b341561040e57600080fd5b610416610c61565b6040518082600281111561042657fe5b60ff16815260200191505060405180910390f35b341561044557600080fd5b610471600480803573ffffffffffffffffffffffffffffffffffffffff16906020019091905050610c74565b6040518082815260200191505060405180910390f35b60008080600281111561049657fe5b600560009054906101000a900460ff1660028111156104b157fe5b1415156104bd57600080fd5b60008373ffffffffffffffffffffffffffffffffffffffff16141515156104e357600080fd5b34600460008573ffffffffffffffffffffffffffffffffffffffff1673ffffffffffffffffffffffffffffffffffffffff168152602001908152602001600020600082825401925050819055506001915050919050565b3373ffffffffffffffffffffffffffffffffffffffff166000809054906101000a900473ffffffffffffffffffffffffffffffffffffffff1673ffffffffffffffffffffffffffffffffffffffff1614151561059557600080fd5b60008060028111156105a357fe5b600560009054906101000a900460ff1660028111156105be57fe5b1415156105ca57600080fd5b6002600560006101000a81548160ff021916908360028111156105e957fe5b021790555050565b600080836000600102600360008373ffffffffffffffffffffffffffffffffffffffff1673ffffffffffffffffffffffffffffffffffffffff16815260200190815260200160002060040154600019161415151561064e57600080fd5b600091505b83518260ff16101561080357600360008673ffffffffffffffffffffffffffffffffffffffff1673ffffffffffffffffffffffffffffffffffffffff16815260200190815260200160002060000180548060010182816106b39190610c8c565b91600052602060002090016000868560ff168151811015156106d157fe5b9060200190602002015190919091509060056106ee929190610cb8565b5050838260ff1681518110151561070157fe5b90602001906020020151600360058110151561071957fe5b602002015163ffffffff16600360008773ffffffffffffffffffffffffffffffffffffffff1673ffffffffffffffffffffffffffffffffffffffff16815260200190815260200160002060010160008282540192505081905550838260ff1681518110151561078457fe5b90602001906020020151600460058110151561079c57fe5b602002015163ffffffff16600360008773ffffffffffffffffffffffffffffffffffffffff1673ffffffffffffffffffffffffffffffffffffffff168152602001908152602001600020600201600082825401925050819055508180600101925050610653565b60019250505092915050565b6000600360008373ffffffffffffffffffffffffffffffffffffffff1673ffffffffffffffffffffffffffffffffffffffff168152602001908152602001600020600001805490509050919050565b60015481565b3373ffffffffffffffffffffffffffffffffffffffff166000809054906101000a900473ffffffffffffffffffffffffffffffffffffffff1673ffffffffffffffffffffffffffffffffffffffff161415156108bf57600080fd5b60028060028111156108cd57fe5b600560009054906101000a900460ff1660028111156108e857fe5b1415156108f457600080fd5b6000600560006101000a81548160ff0219169083600281111561091357fe5b021790555050565b60003373ffffffffffffffffffffffffffffffffffffffff166000809054906101000a900473ffffffffffffffffffffffffffffffffffffffff1673ffffffffffffffffffffffffffffffffffffffff1614151561097857600080fd5b600060010285600019161415151561098f57600080fd5b60006001028460001916141515156109a657600080fd5b60006001028360001916141515156109bd57600080fd5b60006001028260001916141515156109d457600080fd5b84600360008873ffffffffffffffffffffffffffffffffffffffff1673ffffffffffffffffffffffffffffffffffffffff168152602001908152602001600020600401816000191690555083600360008873ffffffffffffffffffffffffffffffffffffffff1673ffffffffffffffffffffffffffffffffffffffff168152602001908152602001600020600501816000191690555082600360008873ffffffffffffffffffffffffffffffffffffffff1673ffffffffffffffffffffffffffffffffffffffff168152602001908152602001600020600601816000191690555081600360008873ffffffffffffffffffffffffffffffffffffffff1673ffffffffffffffffffffffffffffffffffffffff16815260200190815260200160002060070181600019169055506001905095945050505050565b60025481565b6000809054906101000a900473ffffffffffffffffffffffffffffffffffffffff1681565b610b40610d5b565b6001600360008573ffffffffffffffffffffffffffffffffffffffff1673ffffffffffffffffffffffffffffffffffffffff16815260200190815260200160002060000180549050038211151515610b9757600080fd5b600360008473ffffffffffffffffffffffffffffffffffffffff1673ffffffffffffffffffffffffffffffffffffffff16815260200190815260200160002060000182815481101515610be657fe5b9060005260206000209001600580602002604051908101604052809291908260058015610c54576020028201916000905b82829054906101000a900463ffffffff1663ffffffff1681526020019060040190602082600301049283019260010382029150808411610c175790505b5050505050905092915050565b600560009054906101000a900460ff1681565b60046020528060005260406000206000915090505481565b815481835581811511610cb357818360005260206000209182019101610cb29190610d89565b5b505050565b826005600701600890048101928215610d4a5791602002820160005b83821115610d1857835183826101000a81548163ffffffff021916908363ffffffff1602179055509260200192600401602081600301049283019260010302610cd4565b8015610d485782816101000a81549063ffffffff0219169055600401602081600301049283019260010302610d18565b505b509050610d579190610db5565b5090565b60a0604051908101604052806005905b600063ffffffff16815260200190600190039081610d6b5790505090565b610db291905b80821115610dae5760008181610da59190610de8565b50600101610d8f565b5090565b90565b610de591905b80821115610de157600081816101000a81549063ffffffff021916905550600101610dbb565b5090565b90565b50600090555600a165627a7a723058209151f4ee3795222b56ffde62407396964677e18de78551440c06fe1af2aa81d90029a165627a7a72305820b8ab8417fb99e749842b496758ca9c0aeb63326d90ffc2adc679dd6222258c900029",
  "source": "pragma solidity ^0.4.19;\n\nimport './Project.sol';\n\n\ncontract Freeelio {\n\n    address public owner;\n\n    modifier isOwner() {require(msg.sender == owner); _;}\n    // modifier onlyFreeelioProjects(address _addr) {\n    //   Project proj = Project(_addr);\n    //   require(proj.projectOwner() == owner);\n    //   _;\n    // }//refactor this. keep a list of created projects and providers?\n\n    event ContributionLog(\n        address indexed _patron,\n        address indexed _projectAddr,\n        uint256 _contribution);\n\n    event NewProjectLog(\n        address indexed _projectOwner,\n        address indexed _projectAddr,\n        uint256 _pledgedAmount,\n        bytes32 _projectName);\n\n    event NewProviderLog(\n        address indexed _ProviderAddr,\n        address indexed _projectAddr,\n        bytes32 _ProviderName,\n        bytes32 _description,\n        bytes32 _imageUrl,\n        bytes32 _apiURI);\n\n    event NewReadingLog(\n        address indexed _projectAddr,\n        address indexed _providerAddr,\n        bytes32 _hash);\n\n    function () public {\n\n    }\n\n    function Freeelio() public {\n        owner = msg.sender;\n    }\n\n    //onlyOwner (Freeelio) can create new projects\n    // 90001, \"Help Bangladesh Fishing Village\"\n    // gas 863765 txCost; 840061 exCost;\n    function createProject(\n        uint256 _pledgedAmount,\n        bytes32 _projectName)\n        public\n        isOwner\n        returns (address projectAddr)\n    {\n        require(_pledgedAmount > 0x00); //must have a pledged amount greater than zero\n        require(_projectName.length > 0x00); //must have a name\n\n        projectAddr = new Project(\n            address(this),\n            _pledgedAmount,\n            _projectName\n        );\n\n        //filter these events to get list of projects in F/E\n        NewProjectLog(\n            address(this),\n            projectAddr,\n            _pledgedAmount,\n            _projectName\n        );\n        return projectAddr;\n    }\n\n    // Provider self-registration checks existing project\n    // <projectAddr>|| \"0x3cf84b2696bcf70cc87e30661a028d947465892a\", \"0xca35b7d915458ef540ade6068dfe2f44e8fa733c\", \"Solshare\", \"Solshare Bangladesh\", \"http://test.com/logo.jpg\", \"http://test.com/api/\"\n    // gas 115790 txCost; 86646 exCost;\n    function addProvider(\n        address _projectAddr,\n        address _providerAddr,\n        bytes32 _name,\n        bytes32 _description,\n        bytes32 _imageUrl,\n        bytes32 _apiURI)\n        public\n        returns(bool)\n    {\n        require(_providerAddr != 0x00);\n        require(_name != 0x00);\n        require(_description != 0x00);\n        require(_imageUrl != 0x00);\n        require(_apiURI != 0x00);\n\n\n        Project proj = Project(_projectAddr);\n        if (!proj.addProvider.gas(1000000)(_providerAddr, _name, _description, _imageUrl, _apiURI)) {\n            return false;\n        }\n\n        NewProviderLog(\n            _providerAddr,\n            _projectAddr,\n            _name,\n            _description,\n            _imageUrl,\n            _apiURI\n        );\n\n        return true;\n    }\n\n    // add reading to project\n    // <projectAddr> || \"0x3cf84b2696bcf70cc87e30661a028d947465892a\", \"0xca35b7d915458ef540ade6068dfe2f44e8fa733c\", [[1,1,1,1,1], [2,2,2,2,2]]\n    // gas 230141 txCost; 203749 exCost;\n    function addProjectReading(\n        address _projectAddr,\n        address _providerAddr,\n        uint32[5][] _reading)\n        public\n        //project.addReading checks if _providerAddr is a known provider...\n        returns(bool success)\n    {\n        require(_projectAddr != address(0x00));\n        require(_providerAddr != address(0x00));\n        require(_reading.length > 0x00);\n\n        Project proj = Project(_projectAddr);\n        if (!proj.addReading.gas(1000000)(_providerAddr, _reading)) {\n            revert();\n        }\n\n        bytes32 readingHash = keccak256(_reading);\n\n        NewReadingLog(\n                _projectAddr,\n                _providerAddr,\n                readingHash);\n\n        return true;\n    }\n\n    //anyone can contribute\n    // gas 55471 txCost; 32791 exCost;\n    function contribute(address _projectAddr)\n        public\n        payable\n        returns (bool success)\n    {\n        Project project = Project(_projectAddr);\n        if (!project.fund.value(msg.value).gas(100000)(msg.sender)) {\n            revert();\n        } //~0.27 cents\n\n        ContributionLog(msg.sender, _projectAddr, msg.value);\n        return true;\n    }\n\n    function kill() public isOwner {\n        selfdestruct(owner);\n    }\n\n}\n",
  "sourcePath": "/Users/Shared/freeelio/contracts/Freeelio.sol",
  "compiler": {
    "name": "solc",
    "version": "0.4.19+commit.c4cbbb05.Emscripten.clang"
  },
  "schemaVersion": "2.0.0",
  "updatedAt": "2018-03-23T00:12:53.018Z"
}