{
  "contractName": "Freeelio",
  "abi": [
    {
      "constant": true,
      "inputs": [],
      "name": "owner",
      "outputs": [
        {
          "name": "",
          "type": "address"
        }
      ],
      "payable": false,
      "stateMutability": "view",
      "type": "function"
    },
    {
      "constant": true,
      "inputs": [
        {
          "name": "",
          "type": "address"
        },
        {
          "name": "",
          "type": "uint256"
        }
      ],
      "name": "projectProviders",
      "outputs": [
        {
          "name": "",
          "type": "address"
        }
      ],
      "payable": false,
      "stateMutability": "view",
      "type": "function"
    },
    {
      "inputs": [],
      "payable": false,
      "stateMutability": "nonpayable",
      "type": "constructor"
    },
    {
      "payable": false,
      "stateMutability": "nonpayable",
      "type": "fallback"
    },
    {
      "anonymous": false,
      "inputs": [
        {
          "indexed": true,
          "name": "_patron",
          "type": "address"
        },
        {
          "indexed": true,
          "name": "_projectAddr",
          "type": "address"
        },
        {
          "indexed": false,
          "name": "_contribution",
          "type": "uint256"
        }
      ],
      "name": "ContributionLog",
      "type": "event"
    },
    {
      "anonymous": false,
      "inputs": [
        {
          "indexed": true,
          "name": "_projectOwner",
          "type": "address"
        },
        {
          "indexed": true,
          "name": "_projectAddr",
          "type": "address"
        },
        {
          "indexed": false,
          "name": "_pledgedAmount",
          "type": "uint256"
        },
        {
          "indexed": false,
          "name": "_projectName",
          "type": "bytes32"
        }
      ],
      "name": "NewProjectLog",
      "type": "event"
    },
    {
      "anonymous": false,
      "inputs": [
        {
          "indexed": true,
          "name": "_projectAddr",
          "type": "address"
        },
        {
          "indexed": true,
          "name": "_providerAddr",
          "type": "address"
        },
        {
          "indexed": false,
          "name": "_providerName",
          "type": "bytes32"
        },
        {
          "indexed": false,
          "name": "_description",
          "type": "bytes32"
        },
        {
          "indexed": false,
          "name": "_imageUrl",
          "type": "bytes32"
        },
        {
          "indexed": false,
          "name": "_apiURI",
          "type": "bytes32"
        }
      ],
      "name": "NewProviderLog",
      "type": "event"
    },
    {
      "anonymous": false,
      "inputs": [
        {
          "indexed": true,
          "name": "_projectAddr",
          "type": "address"
        },
        {
          "indexed": true,
          "name": "_providerAddr",
          "type": "address"
        },
        {
          "indexed": false,
          "name": "_reading",
          "type": "uint32[5][]"
        }
      ],
      "name": "NewReadingLog",
      "type": "event"
    },
    {
      "constant": false,
      "inputs": [
        {
          "name": "_pledgedAmount",
          "type": "uint256"
        },
        {
          "name": "_projectName",
          "type": "bytes32"
        }
      ],
      "name": "createProject",
      "outputs": [
        {
          "name": "projectAddr",
          "type": "address"
        }
      ],
      "payable": false,
      "stateMutability": "nonpayable",
      "type": "function"
    },
    {
      "constant": false,
      "inputs": [
        {
          "name": "_projectAddr",
          "type": "address"
        },
        {
          "name": "_providerAddr",
          "type": "address"
        },
        {
          "name": "_name",
          "type": "bytes32"
        },
        {
          "name": "_description",
          "type": "bytes32"
        },
        {
          "name": "_imageUrl",
          "type": "bytes32"
        },
        {
          "name": "_apiURI",
          "type": "bytes32"
        }
      ],
      "name": "addProvider",
      "outputs": [
        {
          "name": "",
          "type": "bool"
        }
      ],
      "payable": false,
      "stateMutability": "nonpayable",
      "type": "function"
    },
    {
      "constant": false,
      "inputs": [
        {
          "name": "_projectAddr",
          "type": "address"
        },
        {
          "name": "_providerAddr",
          "type": "address"
        },
        {
          "name": "_reading",
          "type": "uint32[5][]"
        }
      ],
      "name": "addProjectReading",
      "outputs": [
        {
          "name": "success",
          "type": "bool"
        }
      ],
      "payable": false,
      "stateMutability": "nonpayable",
      "type": "function"
    },
    {
      "constant": false,
      "inputs": [
        {
          "name": "_projectAddr",
          "type": "address"
        }
      ],
      "name": "contribute",
      "outputs": [
        {
          "name": "success",
          "type": "bool"
        }
      ],
      "payable": true,
      "stateMutability": "payable",
      "type": "function"
    },
    {
      "constant": true,
      "inputs": [
        {
          "name": "_projectAddr",
          "type": "address"
        },
        {
          "name": "_providerAddr",
          "type": "address"
        }
      ],
      "name": "getProviderReadingCount",
      "outputs": [
        {
          "name": "count",
          "type": "uint256"
        }
      ],
      "payable": false,
      "stateMutability": "view",
      "type": "function"
    },
    {
      "constant": true,
      "inputs": [
        {
          "name": "_projectAddr",
          "type": "address"
        },
        {
          "name": "_providerAddr",
          "type": "address"
        },
        {
          "name": "_index",
          "type": "uint256"
        }
      ],
      "name": "getProviderReading",
      "outputs": [
        {
          "name": "reading",
          "type": "uint32[5]"
        }
      ],
      "payable": false,
      "stateMutability": "view",
      "type": "function"
    },
    {
      "constant": true,
      "inputs": [
        {
          "name": "_projectAddr",
          "type": "address"
        },
        {
          "name": "_providerAddr",
          "type": "address"
        }
      ],
      "name": "getProviderName",
      "outputs": [
        {
          "name": "name",
          "type": "bytes32"
        }
      ],
      "payable": false,
      "stateMutability": "view",
      "type": "function"
    },
    {
      "constant": false,
      "inputs": [],
      "name": "kill",
      "outputs": [],
      "payable": false,
      "stateMutability": "nonpayable",
      "type": "function"
    }
  ],
  "bytecode": "0x6060604052341561000f57600080fd5b336000806101000a81548173ffffffffffffffffffffffffffffffffffffffff021916908373ffffffffffffffffffffffffffffffffffffffff160217905550611fbf8061005e6000396000f3006060604052600436106100a4576000357c0100000000000000000000000000000000000000000000000000000000900463ffffffff1680631558742b146100b1578063181a8bfc1461015557806341c0e1b5146101c957806346d23dd1146101de5780636a0e9e091461024a57806373e888fd146102e757806379c801f91461032d5780638da5cb5b1461039d578063e6e12d12146103f2578063fa60b7aa146104de575b34156100af57600080fd5b005b34156100bc57600080fd5b61013b600480803573ffffffffffffffffffffffffffffffffffffffff1690602001909190803573ffffffffffffffffffffffffffffffffffffffff1690602001909190803560001916906020019091908035600019169060200190919080356000191690602001909190803560001916906020019091905050610560565b604051808215151515815260200191505060405180910390f35b341561016057600080fd5b6101ab600480803573ffffffffffffffffffffffffffffffffffffffff1690602001909190803573ffffffffffffffffffffffffffffffffffffffff16906020019091905050610795565b60405180826000191660001916815260200191505060405180910390f35b34156101d457600080fd5b6101dc610862565b005b34156101e957600080fd5b610234600480803573ffffffffffffffffffffffffffffffffffffffff1690602001909190803573ffffffffffffffffffffffffffffffffffffffff169060200190919050506108f7565b6040518082815260200191505060405180910390f35b341561025557600080fd5b6102a9600480803573ffffffffffffffffffffffffffffffffffffffff1690602001909190803573ffffffffffffffffffffffffffffffffffffffff169060200190919080359060200190919050506109c4565b6040518082600560200280838360005b838110156102d45780820151818401526020810190506102b9565b5050505090500191505060405180910390f35b610313600480803573ffffffffffffffffffffffffffffffffffffffff16906020019091905050610aa4565b604051808215151515815260200191505060405180910390f35b341561033857600080fd5b61035b600480803590602001909190803560001916906020019091905050610bdc565b604051808273ffffffffffffffffffffffffffffffffffffffff1673ffffffffffffffffffffffffffffffffffffffff16815260200191505060405180910390f35b34156103a857600080fd5b6103b0610d48565b604051808273ffffffffffffffffffffffffffffffffffffffff1673ffffffffffffffffffffffffffffffffffffffff16815260200191505060405180910390f35b34156103fd57600080fd5b6104c4600480803573ffffffffffffffffffffffffffffffffffffffff1690602001909190803573ffffffffffffffffffffffffffffffffffffffff169060200190919080359060200190820180359060200190808060200260200160405190810160405280939291908181526020016000905b828210156104b657848483905060a002016005806020026040519081016040528092919082600560200280828437820191505050505081526020019060010190610471565b505050505091905050610d6d565b604051808215151515815260200191505060405180910390f35b34156104e957600080fd5b61051e600480803573ffffffffffffffffffffffffffffffffffffffff16906020019091908035906020019091905050610ffd565b604051808273ffffffffffffffffffffffffffffffffffffffff1673ffffffffffffffffffffffffffffffffffffffff16815260200191505060405180910390f35b60008060008773ffffffffffffffffffffffffffffffffffffffff161415151561058957600080fd5b60006001028660001916141515156105a057600080fd5b60006001028560001916141515156105b757600080fd5b60006001028460001916141515156105ce57600080fd5b60006001028360001916141515156105e557600080fd5b8790508073ffffffffffffffffffffffffffffffffffffffff16639125218d622dc6c089898989896040518763ffffffff167c0100000000000000000000000000000000000000000000000000000000028152600401808673ffffffffffffffffffffffffffffffffffffffff1673ffffffffffffffffffffffffffffffffffffffff168152602001856000191660001916815260200184600019166000191681526020018360001916600019168152602001826000191660001916815260200195505050505050602060405180830381600088803b15156106c657600080fd5b87f115156106d357600080fd5b505050506040518051905015156106e957600080fd5b8673ffffffffffffffffffffffffffffffffffffffff168873ffffffffffffffffffffffffffffffffffffffff167fa93d84a82286928f0be81305e4afdd3270efa82ccc5909eaf094ebf36753f4768888888860405180856000191660001916815260200184600019166000191681526020018360001916600019168152602001826000191660001916815260200194505050505060405180910390a360019150509695505050505050565b6000808390508073ffffffffffffffffffffffffffffffffffffffff1663e73bdd47846000604051602001526040518263ffffffff167c0100000000000000000000000000000000000000000000000000000000028152600401808273ffffffffffffffffffffffffffffffffffffffff1673ffffffffffffffffffffffffffffffffffffffff168152602001915050602060405180830381600087803b151561083e57600080fd5b6102c65a03f1151561084f57600080fd5b5050506040518051905091505092915050565b6000809054906101000a900473ffffffffffffffffffffffffffffffffffffffff1673ffffffffffffffffffffffffffffffffffffffff163373ffffffffffffffffffffffffffffffffffffffff161415156108bd57600080fd5b6000809054906101000a900473ffffffffffffffffffffffffffffffffffffffff1673ffffffffffffffffffffffffffffffffffffffff16ff5b6000808390508073ffffffffffffffffffffffffffffffffffffffff16634fe5bea7846000604051602001526040518263ffffffff167c0100000000000000000000000000000000000000000000000000000000028152600401808273ffffffffffffffffffffffffffffffffffffffff1673ffffffffffffffffffffffffffffffffffffffff168152602001915050602060405180830381600087803b15156109a057600080fd5b6102c65a03f115156109b157600080fd5b5050506040518051905091505092915050565b6109cc61104b565b60008490508073ffffffffffffffffffffffffffffffffffffffff1663ad2c566e8585600060405160a001526040518363ffffffff167c0100000000000000000000000000000000000000000000000000000000028152600401808373ffffffffffffffffffffffffffffffffffffffff1673ffffffffffffffffffffffffffffffffffffffff1681526020018281526020019250505060a060405180830381600087803b1515610a7c57600080fd5b6102c65a03f11515610a8d57600080fd5b5050506040518060a0016040529150509392505050565b6000808290508073ffffffffffffffffffffffffffffffffffffffff16632302440834620493e090336040518463ffffffff167c0100000000000000000000000000000000000000000000000000000000028152600401808273ffffffffffffffffffffffffffffffffffffffff1673ffffffffffffffffffffffffffffffffffffffff1681526020019150506020604051808303818589803b1515610b4957600080fd5b88f11515610b5657600080fd5b5050505050604051805190501515610b6d57600080fd5b8273ffffffffffffffffffffffffffffffffffffffff163373ffffffffffffffffffffffffffffffffffffffff167f188fbedff25e3538bc31bbda15d084585f05d2a0e684e7c07131e63a5b87a80a346040518082815260200191505060405180910390a36001915050919050565b60008060009054906101000a900473ffffffffffffffffffffffffffffffffffffffff1673ffffffffffffffffffffffffffffffffffffffff163373ffffffffffffffffffffffffffffffffffffffff16141515610c3957600080fd5b600083111515610c4857600080fd5b6000602060ff16111515610c5b57600080fd5b308383610c66611079565b808473ffffffffffffffffffffffffffffffffffffffff1673ffffffffffffffffffffffffffffffffffffffff16815260200183815260200182600019166000191681526020019350505050604051809103906000f0801515610cc857600080fd5b90508073ffffffffffffffffffffffffffffffffffffffff163073ffffffffffffffffffffffffffffffffffffffff167fece3bb7c30386c7553effe7a6061bc94952c7196888a352f547e13b3f958fddf85856040518083815260200182600019166000191681526020019250505060405180910390a380905092915050565b6000809054906101000a900473ffffffffffffffffffffffffffffffffffffffff1681565b600080600073ffffffffffffffffffffffffffffffffffffffff168573ffffffffffffffffffffffffffffffffffffffff1614151515610dac57600080fd5b600073ffffffffffffffffffffffffffffffffffffffff168473ffffffffffffffffffffffffffffffffffffffff1614151515610de857600080fd5b60008351111515610df857600080fd5b8490508073ffffffffffffffffffffffffffffffffffffffff166345c0c385622dc6c086866040518463ffffffff167c0100000000000000000000000000000000000000000000000000000000028152600401808373ffffffffffffffffffffffffffffffffffffffff1673ffffffffffffffffffffffffffffffffffffffff168152602001806020018281038252838181518152602001915080516000925b81841015610ee357828490602001906020020151600560200280838360005b83811015610ed2578082015181840152602081019050610eb7565b505050509050019260010192610e98565b925050509350505050602060405180830381600088803b1515610f0557600080fd5b87f11515610f1257600080fd5b50505050604051805190501515610f2857600080fd5b8373ffffffffffffffffffffffffffffffffffffffff168573ffffffffffffffffffffffffffffffffffffffff167fde81bb0cd79e55565f2daaa3394506e30104f4665c05f6edceb1b57a7231b2dc8560405180806020018281038252838181518152602001915080516000925b81841015610fe157828490602001906020020151600560200280838360005b83811015610fd0578082015181840152602081019050610fb5565b505050509050019260010192610f96565b925050509250505060405180910390a360019150509392505050565b60016020528160005260406000208181548110151561101857fe5b90600052602060002090016000915091509054906101000a900473ffffffffffffffffffffffffffffffffffffffff1681565b60a0604051908101604052806005905b600063ffffffff1681526020019060019003908161105b5790505090565b604051610f0a8061108a8339019056006060604052341561000f57600080fd5b604051606080610f0a83398101604052808051906020019091908051906020019091908051906020019091905050826000806101000a81548173ffffffffffffffffffffffffffffffffffffffff021916908373ffffffffffffffffffffffffffffffffffffffff1602179055508160018190555080600281600019169055506000600560006101000a81548160ff021916908360028111156100ae57fe5b0217905550505050610e45806100c56000396000f3006060604052600436106100c5576000357c0100000000000000000000000000000000000000000000000000000000900463ffffffff16806323024408146100d257806331b8ff8e1461011857806345c0c3851461012d5780634fe5bea7146101fa5780637943210e1461024757806387f0f785146102705780639125218d146102855780639a33e3001461030a578063a4475ce41461033b578063ad2c566e14610390578063c19d93fb1461040e578063e73bdd4714610445578063f0d3e74f1461049a575b34156100d057600080fd5b005b6100fe600480803573ffffffffffffffffffffffffffffffffffffffff169060200190919050506104e7565b604051808215151515815260200191505060405180910390f35b341561012357600080fd5b61012b610574565b005b341561013857600080fd5b6101e0600480803573ffffffffffffffffffffffffffffffffffffffff169060200190919080359060200190820180359060200190808060200260200160405190810160405280939291908181526020016000905b828210156101d257848483905060a00201600580602002604051908101604052809291908260056020028082843782019150505050508152602001906001019061018d565b50505050509190505061062b565b604051808215151515815260200191505060405180910390f35b341561020557600080fd5b610231600480803573ffffffffffffffffffffffffffffffffffffffff16906020019091905050610849565b6040518082815260200191505060405180910390f35b341561025257600080fd5b61025a610898565b6040518082815260200191505060405180910390f35b341561027b57600080fd5b61028361089e565b005b341561029057600080fd5b6102f0600480803573ffffffffffffffffffffffffffffffffffffffff1690602001909190803560001916906020019091908035600019169060200190919080356000191690602001909190803560001916906020019091905050610955565b604051808215151515815260200191505060405180910390f35b341561031557600080fd5b61031d610aeb565b60405180826000191660001916815260200191505060405180910390f35b341561034657600080fd5b61034e610af1565b604051808273ffffffffffffffffffffffffffffffffffffffff1673ffffffffffffffffffffffffffffffffffffffff16815260200191505060405180910390f35b341561039b57600080fd5b6103d0600480803573ffffffffffffffffffffffffffffffffffffffff16906020019091908035906020019091905050610b16565b6040518082600560200280838360005b838110156103fb5780820151818401526020810190506103e0565b5050505090500191505060405180910390f35b341561041957600080fd5b610421610c3f565b6040518082600281111561043157fe5b60ff16815260200191505060405180910390f35b341561045057600080fd5b61047c600480803573ffffffffffffffffffffffffffffffffffffffff16906020019091905050610c52565b60405180826000191660001916815260200191505060405180910390f35b34156104a557600080fd5b6104d1600480803573ffffffffffffffffffffffffffffffffffffffff16906020019091905050610c9e565b6040518082815260200191505060405180910390f35b6000808060028111156104f657fe5b600560009054906101000a900460ff16600281111561051157fe5b14151561051d57600080fd5b34600460008573ffffffffffffffffffffffffffffffffffffffff1673ffffffffffffffffffffffffffffffffffffffff168152602001908152602001600020600082825401925050819055506001915050919050565b3373ffffffffffffffffffffffffffffffffffffffff166000809054906101000a900473ffffffffffffffffffffffffffffffffffffffff1673ffffffffffffffffffffffffffffffffffffffff161415156105cf57600080fd5b60008060028111156105dd57fe5b600560009054906101000a900460ff1660028111156105f857fe5b14151561060457600080fd5b6002600560006101000a81548160ff0219169083600281111561062357fe5b021790555050565b600080836000600102600360008373ffffffffffffffffffffffffffffffffffffffff1673ffffffffffffffffffffffffffffffffffffffff16815260200190815260200160002060040154600019161415151561068857600080fd5b600091505b83518260ff16101561083d57600360008673ffffffffffffffffffffffffffffffffffffffff1673ffffffffffffffffffffffffffffffffffffffff16815260200190815260200160002060000180548060010182816106ed9190610cb6565b91600052602060002090016000868560ff1681518110151561070b57fe5b906020019060200201519091909150906005610728929190610ce2565b5050838260ff1681518110151561073b57fe5b90602001906020020151600360058110151561075357fe5b602002015163ffffffff16600360008773ffffffffffffffffffffffffffffffffffffffff1673ffffffffffffffffffffffffffffffffffffffff16815260200190815260200160002060010160008282540192505081905550838260ff168151811015156107be57fe5b9060200190602002015160046005811015156107d657fe5b602002015163ffffffff16600360008773ffffffffffffffffffffffffffffffffffffffff1673ffffffffffffffffffffffffffffffffffffffff16815260200190815260200160002060020160008282540192505081905550818060010192505061068d565b60019250505092915050565b6000600360008373ffffffffffffffffffffffffffffffffffffffff1673ffffffffffffffffffffffffffffffffffffffff168152602001908152602001600020600001805490509050919050565b60015481565b3373ffffffffffffffffffffffffffffffffffffffff166000809054906101000a900473ffffffffffffffffffffffffffffffffffffffff1673ffffffffffffffffffffffffffffffffffffffff161415156108f957600080fd5b600280600281111561090757fe5b600560009054906101000a900460ff16600281111561092257fe5b14151561092e57600080fd5b6000600560006101000a81548160ff0219169083600281111561094d57fe5b021790555050565b60003373ffffffffffffffffffffffffffffffffffffffff166000809054906101000a900473ffffffffffffffffffffffffffffffffffffffff1673ffffffffffffffffffffffffffffffffffffffff161415156109b257600080fd5b84600360008873ffffffffffffffffffffffffffffffffffffffff1673ffffffffffffffffffffffffffffffffffffffff168152602001908152602001600020600401816000191690555083600360008873ffffffffffffffffffffffffffffffffffffffff1673ffffffffffffffffffffffffffffffffffffffff168152602001908152602001600020600501816000191690555082600360008873ffffffffffffffffffffffffffffffffffffffff1673ffffffffffffffffffffffffffffffffffffffff168152602001908152602001600020600601816000191690555081600360008873ffffffffffffffffffffffffffffffffffffffff1673ffffffffffffffffffffffffffffffffffffffff16815260200190815260200160002060070181600019169055506001905095945050505050565b60025481565b6000809054906101000a900473ffffffffffffffffffffffffffffffffffffffff1681565b610b1e610d85565b6001600360008573ffffffffffffffffffffffffffffffffffffffff1673ffffffffffffffffffffffffffffffffffffffff16815260200190815260200160002060000180549050038211151515610b7557600080fd5b600360008473ffffffffffffffffffffffffffffffffffffffff1673ffffffffffffffffffffffffffffffffffffffff16815260200190815260200160002060000182815481101515610bc457fe5b9060005260206000209001600580602002604051908101604052809291908260058015610c32576020028201916000905b82829054906101000a900463ffffffff1663ffffffff1681526020019060040190602082600301049283019260010382029150808411610bf55790505b5050505050905092915050565b600560009054906101000a900460ff1681565b6000600360008373ffffffffffffffffffffffffffffffffffffffff1673ffffffffffffffffffffffffffffffffffffffff168152602001908152602001600020600401549050919050565b60046020528060005260406000206000915090505481565b815481835581811511610cdd57818360005260206000209182019101610cdc9190610db3565b5b505050565b826005600701600890048101928215610d745791602002820160005b83821115610d4257835183826101000a81548163ffffffff021916908363ffffffff1602179055509260200192600401602081600301049283019260010302610cfe565b8015610d725782816101000a81549063ffffffff0219169055600401602081600301049283019260010302610d42565b505b509050610d819190610ddf565b5090565b60a0604051908101604052806005905b600063ffffffff16815260200190600190039081610d955790505090565b610ddc91905b80821115610dd85760008181610dcf9190610e12565b50600101610db9565b5090565b90565b610e0f91905b80821115610e0b57600081816101000a81549063ffffffff021916905550600101610de5565b5090565b90565b50600090555600a165627a7a72305820027208aa78ddced3efabf5cd43ceb4e23b4349d1a5cabbf89a8f42ee513194230029a165627a7a7230582013da9856382271f166ed2c171451c17967e9b8eaee241bf1ff245784fada07410029",
  "source": "pragma solidity ^0.4.19;\n\nimport './Project.sol';\n\n\ncontract Freeelio {\n    //keeps a list of created projects and providers and readings in the logs\n    address public owner;\n\n    mapping(address => address[]) public projectProviders;\n\n    modifier isOwner() {require(msg.sender == owner); _;}\n\n    event ContributionLog(\n        address indexed _patron,\n        address indexed _projectAddr,\n        uint256 _contribution);\n\n    event NewProjectLog(\n        address indexed _projectOwner,\n        address indexed _projectAddr,\n        uint256 _pledgedAmount,\n        bytes32 _projectName);\n\n    event NewProviderLog(\n        address indexed _projectAddr,\n        address indexed _providerAddr,\n        bytes32 _providerName,\n        bytes32 _description,\n        bytes32 _imageUrl,\n        bytes32 _apiURI);\n\n    event NewReadingLog(\n        address indexed _projectAddr,\n        address indexed _providerAddr,\n        uint32[5][] _reading);\n\n    function () public {\n\n    }\n\n    function Freeelio() public {\n        owner = msg.sender;\n    }\n\n    //onlyOwner (Freeelio) can create new projects\n    // 90001, \"Help Bangladesh Fishing Village\"\n    // gas 863765 txCost; 840061 exCost;\n    function createProject(\n        uint256 _pledgedAmount,\n        bytes32 _projectName)\n        public\n        isOwner\n        returns (address projectAddr)\n    {\n        require(_pledgedAmount > 0x00); //must have a pledged amount greater than zero\n        require(_projectName.length > 0x00); //must have a name\n\n        projectAddr = new Project(\n            address(this),\n            _pledgedAmount,\n            _projectName\n        );\n\n        //filter these events to get list of projects in F/E\n        NewProjectLog(\n            address(this),\n            projectAddr,\n            _pledgedAmount,\n            _projectName\n        );\n        return projectAddr;\n    }\n\n    // Provider self-registration checks existing project\n    // <projectAddr>|| \"0x755014da263fc47d238078bb47d217f743e5b6a5\", \"0xca35b7d915458ef540ade6068dfe2f44e8fa733c\", \"Solshare\", \"Solshare Bangladesh\", \"http://test.com/logo.jpg\", \"http://test.com/api/\"\n    // gas 115790 txCost; 86646 exCost;\n    function addProvider(\n        address _projectAddr,\n        address _providerAddr,\n        bytes32 _name,\n        bytes32 _description,\n        bytes32 _imageUrl,\n        bytes32 _apiURI)\n        public\n        returns(bool)\n    {\n        require(_providerAddr != 0x00);\n        require(_name != 0x00);\n        require(_description != 0x00);\n        require(_imageUrl != 0x00);\n        require(_apiURI != 0x00);\n\n\n        Project proj = Project(_projectAddr);\n        if (!proj.addProvider.gas(3000000)(\n                _providerAddr,\n                _name,\n                _description,\n                _imageUrl,\n                _apiURI))\n        {\n            revert();\n        }\n\n        NewProviderLog(\n            _projectAddr,\n            _providerAddr,\n            _name,\n            _description,\n            _imageUrl,\n            _apiURI\n        );\n\n        return true;\n    }\n\n    // add reading to project\n    // <projectAddr> || \"0x755014da263fc47d238078bb47d217f743e5b6a5\", \"0xca35b7d915458ef540ade6068dfe2f44e8fa733c\", [[1,1,1,1,1], [2,2,2,2,2]]\n    // gas 230141 txCost; 203749 exCost;\n    function addProjectReading(\n        address _projectAddr,\n        address _providerAddr,\n        uint32[5][] _reading)\n        public\n        //project.addReading checks if _providerAddr is a known provider...\n        returns(bool success)\n    {\n        require(_projectAddr != address(0x00));\n        require(_providerAddr != address(0x00));\n        require(_reading.length > 0x00);\n\n        Project proj = Project(_projectAddr);\n        if (!proj.addReading.gas(3000000)(_providerAddr, _reading)) {\n            revert();\n        }\n\n        NewReadingLog(\n                _projectAddr,\n                _providerAddr,\n                _reading);\n\n        return true;\n    }\n\n    //anyone can contribute\n    // gas 55471 txCost; 32791 exCost;\n    function contribute(address _projectAddr)\n        public\n        payable\n        returns (bool success)\n    {\n        Project project = Project(_projectAddr);\n        if (!project.fund.value(msg.value).gas(300000)(msg.sender)) {\n            revert();\n        } //~0.27 cents\n\n        ContributionLog(msg.sender, _projectAddr, msg.value);\n        return true;\n    }\n\n    // <projectAddr> || \"0x755014da263fc47d238078bb47d217f743e5b6a5\", \"0xca35b7d915458ef540ade6068dfe2f44e8fa733c\"\n    function getProviderReadingCount(address _projectAddr, address _providerAddr)\n        public\n        view\n        returns(uint256 count)\n    {\n        Project project = Project(_projectAddr);\n\n        return project.getProviderReadingCount(_providerAddr);\n    }\n\n    // \"0x755014da263fc47d238078bb47d217f743e5b6a5\", \"0xca35b7d915458ef540ade6068dfe2f44e8fa733c\", 1 // index starts at zero\n    function getProviderReading(\n        address _projectAddr,\n        address _providerAddr,\n        uint256 _index)\n        public\n        view\n        returns(uint32[5] reading)\n    {\n        Project project = Project(_projectAddr);\n\n        return project.getProviderReading(_providerAddr, _index);\n    }\n\n    function getProviderName(address _projectAddr, address _providerAddr)\n        public\n        view\n        returns(bytes32 name)\n    {\n      Project project = Project(_projectAddr);\n\n      return project.getProviderName(_providerAddr);\n    }\n\n    function kill() public isOwner {\n        selfdestruct(owner);\n    }\n\n}\n",
  "sourcePath": "/Users/Shared/freeelio/contracts/Freeelio.sol",
  "compiler": {
    "name": "solc",
    "version": "0.4.19+commit.c4cbbb05.Emscripten.clang"
  },
  "schemaVersion": "2.0.0",
  "updatedAt": "2018-03-27T18:36:15.477Z"
}