{
  "contractName": "Freeelio",
  "abi": [
    {
      "constant": false,
      "inputs": [],
      "name": "kill",
      "outputs": [],
      "payable": false,
      "stateMutability": "nonpayable",
      "type": "function"
    },
    {
      "constant": false,
      "inputs": [
        {
          "name": "_wallet",
          "type": "address"
        },
        {
          "name": "_projectAddr",
          "type": "address"
        },
        {
          "name": "_name",
          "type": "bytes32"
        },
        {
          "name": "_description",
          "type": "bytes32"
        },
        {
          "name": "_imageUrl",
          "type": "bytes32"
        }
      ],
      "name": "addProvider",
      "outputs": [
        {
          "name": "",
          "type": "bool"
        }
      ],
      "payable": false,
      "stateMutability": "nonpayable",
      "type": "function"
    },
    {
      "constant": false,
      "inputs": [
        {
          "name": "_projectAddr",
          "type": "address"
        }
      ],
      "name": "contribute",
      "outputs": [
        {
          "name": "success",
          "type": "bool"
        }
      ],
      "payable": true,
      "stateMutability": "payable",
      "type": "function"
    },
    {
      "constant": false,
      "inputs": [
        {
          "name": "_activatedAmount",
          "type": "uint256"
        },
        {
          "name": "_projectName",
          "type": "bytes32"
        }
      ],
      "name": "createProject",
      "outputs": [
        {
          "name": "projectAddr",
          "type": "address"
        }
      ],
      "payable": false,
      "stateMutability": "nonpayable",
      "type": "function"
    },
    {
      "constant": true,
      "inputs": [],
      "name": "owner",
      "outputs": [
        {
          "name": "",
          "type": "address"
        }
      ],
      "payable": false,
      "stateMutability": "view",
      "type": "function"
    },
    {
      "constant": true,
      "inputs": [
        {
          "name": "",
          "type": "address"
        }
      ],
      "name": "provider",
      "outputs": [
        {
          "name": "name",
          "type": "bytes32"
        },
        {
          "name": "description",
          "type": "bytes32"
        },
        {
          "name": "imageUrl",
          "type": "bytes32"
        }
      ],
      "payable": false,
      "stateMutability": "view",
      "type": "function"
    },
    {
      "inputs": [],
      "payable": false,
      "stateMutability": "nonpayable",
      "type": "constructor"
    },
    {
      "payable": false,
      "stateMutability": "nonpayable",
      "type": "fallback"
    },
    {
      "anonymous": false,
      "inputs": [
        {
          "indexed": true,
          "name": "_projectOwner",
          "type": "address"
        },
        {
          "indexed": true,
          "name": "_projectAddr",
          "type": "address"
        },
        {
          "indexed": false,
          "name": "_activatedAmount",
          "type": "uint256"
        },
        {
          "indexed": false,
          "name": "_projectName",
          "type": "bytes32"
        }
      ],
      "name": "ProjectLog",
      "type": "event"
    },
    {
      "anonymous": false,
      "inputs": [
        {
          "indexed": true,
          "name": "_patron",
          "type": "address"
        },
        {
          "indexed": true,
          "name": "_projectAddr",
          "type": "address"
        },
        {
          "indexed": false,
          "name": "_contribution",
          "type": "uint256"
        }
      ],
      "name": "ContributionLog",
      "type": "event"
    },
    {
      "anonymous": false,
      "inputs": [
        {
          "indexed": true,
          "name": "_ProviderAddr",
          "type": "address"
        },
        {
          "indexed": true,
          "name": "_projectAddr",
          "type": "address"
        },
        {
          "indexed": false,
          "name": "_ProviderName",
          "type": "bytes32"
        },
        {
          "indexed": false,
          "name": "_description",
          "type": "bytes32"
        },
        {
          "indexed": false,
          "name": "_imageUrl",
          "type": "bytes32"
        }
      ],
      "name": "NewProviderLog",
      "type": "event"
    }
  ],
  "bytecode": "0x6060604052341561000f57600080fd5b336000806101000a81548173ffffffffffffffffffffffffffffffffffffffff021916908373ffffffffffffffffffffffffffffffffffffffff1602179055506113a78061005e6000396000f300606060405260043610610078576000357c0100000000000000000000000000000000000000000000000000000000900463ffffffff16806341c0e1b51461008557806371e539ad1461009a57806373e888fd1461013157806379c801f9146101775780638da5cb5b146101e7578063fbaf094a1461023c575b341561008357600080fd5b005b341561009057600080fd5b6100986102af565b005b34156100a557600080fd5b610117600480803573ffffffffffffffffffffffffffffffffffffffff1690602001909190803573ffffffffffffffffffffffffffffffffffffffff16906020019091908035600019169060200190919080356000191690602001909190803560001916906020019091905050610344565b604051808215151515815260200191505060405180910390f35b61015d600480803573ffffffffffffffffffffffffffffffffffffffff169060200190919050506104c9565b604051808215151515815260200191505060405180910390f35b341561018257600080fd5b6101a5600480803590602001909190803560001916906020019091905050610601565b604051808273ffffffffffffffffffffffffffffffffffffffff1673ffffffffffffffffffffffffffffffffffffffff16815260200191505060405180910390f35b34156101f257600080fd5b6101fa61076d565b604051808273ffffffffffffffffffffffffffffffffffffffff1673ffffffffffffffffffffffffffffffffffffffff16815260200191505060405180910390f35b341561024757600080fd5b610273600480803573ffffffffffffffffffffffffffffffffffffffff16906020019091905050610792565b60405180846000191660001916815260200183600019166000191681526020018260001916600019168152602001935050505060405180910390f35b6000809054906101000a900473ffffffffffffffffffffffffffffffffffffffff1673ffffffffffffffffffffffffffffffffffffffff163373ffffffffffffffffffffffffffffffffffffffff1614151561030a57600080fd5b6000809054906101000a900473ffffffffffffffffffffffffffffffffffffffff1673ffffffffffffffffffffffffffffffffffffffff16ff5b600084600081905085600160008a73ffffffffffffffffffffffffffffffffffffffff1673ffffffffffffffffffffffffffffffffffffffff168152602001908152602001600020600001816000191690555084600160008a73ffffffffffffffffffffffffffffffffffffffff1673ffffffffffffffffffffffffffffffffffffffff168152602001908152602001600020600101816000191690555083600160008a73ffffffffffffffffffffffffffffffffffffffff1673ffffffffffffffffffffffffffffffffffffffff16815260200190815260200160002060020181600019169055508673ffffffffffffffffffffffffffffffffffffffff168873ffffffffffffffffffffffffffffffffffffffff167f3933938b1d7f56dcd35994a4c93859095929aec4c7374dfe103d027e143c4cf788888860405180846000191660001916815260200183600019166000191681526020018260001916600019168152602001935050505060405180910390a360019250505095945050505050565b6000808290508073ffffffffffffffffffffffffffffffffffffffff16632302440834620186a090336040518463ffffffff167c0100000000000000000000000000000000000000000000000000000000028152600401808273ffffffffffffffffffffffffffffffffffffffff1673ffffffffffffffffffffffffffffffffffffffff1681526020019150506020604051808303818589803b151561056e57600080fd5b88f1151561057b57600080fd5b505050505060405180519050151561059257600080fd5b8273ffffffffffffffffffffffffffffffffffffffff163373ffffffffffffffffffffffffffffffffffffffff167f188fbedff25e3538bc31bbda15d084585f05d2a0e684e7c07131e63a5b87a80a346040518082815260200191505060405180910390a36001915050919050565b60008060009054906101000a900473ffffffffffffffffffffffffffffffffffffffff1673ffffffffffffffffffffffffffffffffffffffff163373ffffffffffffffffffffffffffffffffffffffff1614151561065e57600080fd5b60008311151561066d57600080fd5b6000602060ff1611151561068057600080fd5b33838361068b6107bc565b808473ffffffffffffffffffffffffffffffffffffffff1673ffffffffffffffffffffffffffffffffffffffff16815260200183815260200182600019166000191681526020019350505050604051809103906000f08015156106ed57600080fd5b90508073ffffffffffffffffffffffffffffffffffffffff163373ffffffffffffffffffffffffffffffffffffffff167f690992ac155f8725f7df85845c2ebd10070e75fbcd7e2748ea3d139d683f449785856040518083815260200182600019166000191681526020019250505060405180910390a380905092915050565b6000809054906101000a900473ffffffffffffffffffffffffffffffffffffffff1681565b60016020528060005260406000206000915090508060000154908060010154908060020154905083565b604051610baf806107cd8339019056006060604052341561000f57600080fd5b604051606080610baf83398101604052808051906020019091908051906020019091908051906020019091905050826000800160006101000a81548173ffffffffffffffffffffffffffffffffffffffff021916908373ffffffffffffffffffffffffffffffffffffffff1602179055508160006001018190555080600060020181600019169055506000600560006101000a81548160ff021916908360028111156100b757fe5b0217905550505050610ae1806100ce6000396000f3006060604052600436106100af576000357c0100000000000000000000000000000000000000000000000000000000900463ffffffff16806323024408146100bc57806331b8ff8e146101025780633db71ca71461011757806363bd1d4a1461017957806379502c55146101a657806387f0f78514610211578063c19d93fb14610226578063c1f85c7e1461025d578063f0d3e74f14610286578063fa89401a146102d3578063ff14065e14610324575b34156100ba57600080fd5b005b6100e8600480803573ffffffffffffffffffffffffffffffffffffffff16906020019091905050610396565b604051808215151515815260200191505060405180910390f35b341561010d57600080fd5b610115610497565b005b341561012257600080fd5b61015f600480803560ff1690602001909190803560ff1690602001909190803560ff1690602001909190803560ff16906020019091905050610551565b604051808215151515815260200191505060405180910390f35b341561018457600080fd5b61018c610614565b604051808215151515815260200191505060405180910390f35b34156101b157600080fd5b6101b961077f565b604051808473ffffffffffffffffffffffffffffffffffffffff1673ffffffffffffffffffffffffffffffffffffffff1681526020018381526020018260001916600019168152602001935050505060405180910390f35b341561021c57600080fd5b6102246107b7565b005b341561023157600080fd5b610239610871565b6040518082600281111561024957fe5b60ff16815260200191505060405180910390f35b341561026857600080fd5b610270610884565b6040518082815260200191505060405180910390f35b341561029157600080fd5b6102bd600480803573ffffffffffffffffffffffffffffffffffffffff16906020019091905050610890565b6040518082815260200191505060405180910390f35b34156102de57600080fd5b61030a600480803573ffffffffffffffffffffffffffffffffffffffff169060200190919050506108a8565b604051808215151515815260200191505060405180910390f35b341561032f57600080fd5b610348600480803560ff16906020019091905050610a3e565b604051808660ff1660ff1681526020018560ff1660ff1681526020018460ff1660ff1681526020018360ff1660ff168152602001821515151581526020019550505050505060405180910390f35b6000808060028111156103a557fe5b600560009054906101000a900460ff1660028111156103c057fe5b1415156103cc57600080fd5b60008373ffffffffffffffffffffffffffffffffffffffff16141515156103f257600080fd5b34600460008573ffffffffffffffffffffffffffffffffffffffff1673ffffffffffffffffffffffffffffffffffffffff168152602001908152602001600020600082825401925050819055508273ffffffffffffffffffffffffffffffffffffffff167f8ed7a9ea80c3ce52e32135ad1215141cdd65ba61fd4cead3dde851f094011fd2346040518082815260200191505060405180910390a26001915050919050565b6000800160009054906101000a900473ffffffffffffffffffffffffffffffffffffffff1673ffffffffffffffffffffffffffffffffffffffff163373ffffffffffffffffffffffffffffffffffffffff161415156104f557600080fd5b600080600281111561050357fe5b600560009054906101000a900460ff16600281111561051e57fe5b14151561052a57600080fd5b6002600560006101000a81548160ff0219169083600281111561054957fe5b021790555050565b600083600360008760ff1660ff16815260200190815260200160002060000160016101000a81548160ff021916908360ff16021790555082600360008760ff1660ff16815260200190815260200160002060000160026101000a81548160ff021916908360ff16021790555081600360008760ff1660ff16815260200190815260200160002060000160036101000a81548160ff021916908360ff1602179055508160ff1660006001016000828254019250508190555060019050949350505050565b6000806000800160009054906101000a900473ffffffffffffffffffffffffffffffffffffffff1673ffffffffffffffffffffffffffffffffffffffff163373ffffffffffffffffffffffffffffffffffffffff1614151561067557600080fd5b600080600281111561068357fe5b600560009054906101000a900460ff16600281111561069e57fe5b1415156106aa57600080fd5b3073ffffffffffffffffffffffffffffffffffffffff163191506000800160009054906101000a900473ffffffffffffffffffffffffffffffffffffffff1673ffffffffffffffffffffffffffffffffffffffff166108fc839081150290604051600060405180830381858888f19350505050151561072857600080fd5b3373ffffffffffffffffffffffffffffffffffffffff167f9f1a1f9af425ae40aa112c22d1499ae5b55d6fc008cede646cfcb9519bfd1ee1836040518082815260200191505060405180910390a260019250505090565b60008060000160009054906101000a900473ffffffffffffffffffffffffffffffffffffffff16908060010154908060020154905083565b6000800160009054906101000a900473ffffffffffffffffffffffffffffffffffffffff1673ffffffffffffffffffffffffffffffffffffffff163373ffffffffffffffffffffffffffffffffffffffff1614151561081557600080fd5b600280600281111561082357fe5b600560009054906101000a900460ff16600281111561083e57fe5b14151561084a57600080fd5b6000600560006101000a81548160ff0219169083600281111561086957fe5b021790555050565b600560009054906101000a900460ff1681565b60008060010154905090565b60046020528060005260406000206000915090505481565b6000806000600460003373ffffffffffffffffffffffffffffffffffffffff1673ffffffffffffffffffffffffffffffffffffffff168152602001908152602001600020541115156108f957600080fd5b60008373ffffffffffffffffffffffffffffffffffffffff161415151561091f57600080fd5b600460008473ffffffffffffffffffffffffffffffffffffffff1673ffffffffffffffffffffffffffffffffffffffff1681526020019081526020016000205490506000600460008573ffffffffffffffffffffffffffffffffffffffff1673ffffffffffffffffffffffffffffffffffffffff168152602001908152602001600020819055508273ffffffffffffffffffffffffffffffffffffffff166108fc829081150290604051600060405180830381858888f1935050505015156109e657600080fd5b8273ffffffffffffffffffffffffffffffffffffffff167fd37212af83afd79b23bfc053219a76db2c87d66f9af9ceaf1293d4fd6761c746826040518082815260200191505060405180910390a26001915050919050565b60036020528060005260406000206000915090508060000160009054906101000a900460ff16908060000160019054906101000a900460ff16908060000160029054906101000a900460ff16908060000160039054906101000a900460ff16908060000160049054906101000a900460ff169050855600a165627a7a72305820a667b3e51a8d770f12a1778ad94c7690ed82cc9d620f2624737646736309a86a0029a165627a7a72305820290d76883e7006cd7e5d9e3dfe62fcce83fedd3e93bb28052308d546743720c90029",
  "source": "pragma solidity ^0.4.18;\n\nimport './Project.sol';\n\n\ncontract Freeelio {\n\n    address public owner;\n\n    struct ProviderStruct {\n        bytes32 name;\n        bytes32 description;\n        bytes32 imageUrl;\n    }\n\n    mapping(address => ProviderStruct) public provider;\n\n    modifier onlyOwner() {require(msg.sender == owner); _;}\n\n    modifier onlyFreeelioProjects(address _addr) {\n      Project proj = Project(_addr);\n      //require(proj.config.projectOwner == address(this));\n      _;\n    }\n\n    event ProjectLog(\n        address indexed _projectOwner,\n        address indexed _projectAddr,\n        uint256 _activatedAmount,\n        bytes32 _projectName);\n\n    event ContributionLog(\n        address indexed _patron,\n        address indexed _projectAddr,\n        uint256 _contribution);\n\n    event NewProviderLog(\n        address indexed _ProviderAddr,\n        address indexed _projectAddr,\n        bytes32 _ProviderName,\n        bytes32 _description,\n        bytes32 _imageUrl);\n\n    function () public {\n\n    }\n\n    function Freeelio() public {\n        owner = msg.sender;\n    }\n\n    // Provider self-registration checks existing project\n    function addProvider(\n        address _wallet,\n        address _projectAddr,\n        bytes32 _name,\n        bytes32 _description,\n        bytes32 _imageUrl)\n        public\n        onlyFreeelioProjects(_projectAddr)\n        returns(bool)\n    {\n        provider[_wallet].name = _name;\n        provider[_wallet].description = _description;\n        provider[_wallet].imageUrl = _imageUrl;\n\n        NewProviderLog(\n            _wallet,\n            _projectAddr,\n            _name,\n            _description,\n            _imageUrl\n        );\n\n        return true;\n    }\n\n    //onlyOwner (Freeelio) can create new projects\n    function createProject(\n        uint256 _activatedAmount,\n        bytes32 _projectName)\n        public\n        onlyOwner\n        returns (address projectAddr)\n    {\n        require(_activatedAmount > 0x00); //must have a target activated amount greater than zero\n        require(_projectName.length > 0x00); //must have a name\n\n        projectAddr = new Project(\n            msg.sender,\n            _activatedAmount,\n            _projectName\n        );\n\n        //filter these events to get list of projects in F/E\n        //msg.sender is projectOwner should be provider\n        ProjectLog(\n            msg.sender,\n            projectAddr,\n            _activatedAmount,\n            _projectName\n        );\n        return projectAddr;\n    }\n\n    //anyone can contribute\n    function contribute(address _projectAddr)\n        public\n        payable\n        returns (bool success)\n    {\n        Project project = Project(_projectAddr);\n        if (!project.fund.value(msg.value).gas(100000)(msg.sender)) {\n            revert();\n        } //~0.27 cents\n\n        ContributionLog(msg.sender, _projectAddr, msg.value);\n        return true;\n    }\n\n    function kill() public onlyOwner {\n        selfdestruct(owner);\n    }\n\n}\n",
  "sourcePath": "/Users/Shared/freeelio/contracts/Freeelio.sol",
  "compiler": {
    "name": "solc",
    "version": "0.4.18+commit.9cf6e910.Emscripten.clang"
  },
  "schemaVersion": "1.0.1",
  "updatedAt": "2018-03-19T18:32:04.448Z"
}