{
  "contractName": "Freeelio",
  "abi": [
    {
      "constant": false,
      "inputs": [
        {
          "name": "_wallet",
          "type": "address"
        },
        {
          "name": "_name",
          "type": "bytes32"
        },
        {
          "name": "_description",
          "type": "bytes32"
        },
        {
          "name": "_imageUrl",
          "type": "bytes32"
        }
      ],
      "name": "addProvider",
      "outputs": [
        {
          "name": "",
          "type": "bool"
        }
      ],
      "payable": false,
      "stateMutability": "nonpayable",
      "type": "function"
    },
    {
      "constant": false,
      "inputs": [],
      "name": "kill",
      "outputs": [],
      "payable": false,
      "stateMutability": "nonpayable",
      "type": "function"
    },
    {
      "constant": false,
      "inputs": [
        {
          "name": "_projectAddr",
          "type": "address"
        }
      ],
      "name": "contribute",
      "outputs": [
        {
          "name": "success",
          "type": "bool"
        }
      ],
      "payable": true,
      "stateMutability": "payable",
      "type": "function"
    },
    {
      "constant": false,
      "inputs": [
        {
          "name": "_activatedAmount",
          "type": "uint256"
        },
        {
          "name": "_projectName",
          "type": "bytes32"
        }
      ],
      "name": "createProject",
      "outputs": [
        {
          "name": "projectAddr",
          "type": "address"
        }
      ],
      "payable": false,
      "stateMutability": "nonpayable",
      "type": "function"
    },
    {
      "constant": true,
      "inputs": [],
      "name": "owner",
      "outputs": [
        {
          "name": "",
          "type": "address"
        }
      ],
      "payable": false,
      "stateMutability": "view",
      "type": "function"
    },
    {
      "constant": true,
      "inputs": [
        {
          "name": "",
          "type": "address"
        }
      ],
      "name": "provider",
      "outputs": [
        {
          "name": "name",
          "type": "bytes32"
        },
        {
          "name": "description",
          "type": "bytes32"
        },
        {
          "name": "imageUrl",
          "type": "bytes32"
        }
      ],
      "payable": false,
      "stateMutability": "view",
      "type": "function"
    },
    {
      "inputs": [],
      "payable": false,
      "stateMutability": "nonpayable",
      "type": "constructor"
    },
    {
      "payable": false,
      "stateMutability": "nonpayable",
      "type": "fallback"
    },
    {
      "anonymous": false,
      "inputs": [
        {
          "indexed": true,
          "name": "_projectOwner",
          "type": "address"
        },
        {
          "indexed": true,
          "name": "_projectAddr",
          "type": "address"
        },
        {
          "indexed": false,
          "name": "_activatedAmount",
          "type": "uint256"
        },
        {
          "indexed": false,
          "name": "_projectName",
          "type": "bytes32"
        }
      ],
      "name": "ProjectLog",
      "type": "event"
    },
    {
      "anonymous": false,
      "inputs": [
        {
          "indexed": true,
          "name": "_patron",
          "type": "address"
        },
        {
          "indexed": true,
          "name": "_projectAddr",
          "type": "address"
        },
        {
          "indexed": false,
          "name": "_contribution",
          "type": "uint256"
        }
      ],
      "name": "ContributionLog",
      "type": "event"
    },
    {
      "anonymous": false,
      "inputs": [
        {
          "indexed": true,
          "name": "_ProviderAddr",
          "type": "address"
        },
        {
          "indexed": false,
          "name": "_ProviderName",
          "type": "bytes32"
        },
        {
          "indexed": false,
          "name": "_description",
          "type": "bytes32"
        },
        {
          "indexed": false,
          "name": "_imageUrl",
          "type": "bytes32"
        }
      ],
      "name": "NewProviderLog",
      "type": "event"
    }
  ],
  "bytecode": "0x6060604052341561000f57600080fd5b336000806101000a81548173ffffffffffffffffffffffffffffffffffffffff021916908373ffffffffffffffffffffffffffffffffffffffff1602179055506113118061005e6000396000f300606060405260043610610078576000357c0100000000000000000000000000000000000000000000000000000000900463ffffffff16806321ddc16e1461008557806341c0e1b5146100fd57806373e888fd1461011257806379c801f9146101585780638da5cb5b146101c8578063fbaf094a1461021d575b341561008357600080fd5b005b341561009057600080fd5b6100e3600480803573ffffffffffffffffffffffffffffffffffffffff16906020019091908035600019169060200190919080356000191690602001909190803560001916906020019091905050610290565b604051808215151515815260200191505060405180910390f35b341561010857600080fd5b610110610450565b005b61013e600480803573ffffffffffffffffffffffffffffffffffffffff169060200190919050506104e5565b604051808215151515815260200191505060405180910390f35b341561016357600080fd5b61018660048080359060200190919080356000191690602001909190505061061d565b604051808273ffffffffffffffffffffffffffffffffffffffff1673ffffffffffffffffffffffffffffffffffffffff16815260200191505060405180910390f35b34156101d357600080fd5b6101db61072d565b604051808273ffffffffffffffffffffffffffffffffffffffff1673ffffffffffffffffffffffffffffffffffffffff16815260200191505060405180910390f35b341561022857600080fd5b610254600480803573ffffffffffffffffffffffffffffffffffffffff16906020019091905050610752565b60405180846000191660001916815260200183600019166000191681526020018260001916600019168152602001935050505060405180910390f35b60008060009054906101000a900473ffffffffffffffffffffffffffffffffffffffff1673ffffffffffffffffffffffffffffffffffffffff163373ffffffffffffffffffffffffffffffffffffffff161415156102ed57600080fd5b83600160008773ffffffffffffffffffffffffffffffffffffffff1673ffffffffffffffffffffffffffffffffffffffff168152602001908152602001600020600001816000191690555082600160008773ffffffffffffffffffffffffffffffffffffffff1673ffffffffffffffffffffffffffffffffffffffff168152602001908152602001600020600101816000191690555081600160008773ffffffffffffffffffffffffffffffffffffffff1673ffffffffffffffffffffffffffffffffffffffff16815260200190815260200160002060020181600019169055508473ffffffffffffffffffffffffffffffffffffffff167f11424440b8f783010390beb2d0b1920995c4b8b032696c6ae42f26fc736be8de85858560405180846000191660001916815260200183600019166000191681526020018260001916600019168152602001935050505060405180910390a260019050949350505050565b6000809054906101000a900473ffffffffffffffffffffffffffffffffffffffff1673ffffffffffffffffffffffffffffffffffffffff163373ffffffffffffffffffffffffffffffffffffffff161415156104ab57600080fd5b6000809054906101000a900473ffffffffffffffffffffffffffffffffffffffff1673ffffffffffffffffffffffffffffffffffffffff16ff5b6000808290508073ffffffffffffffffffffffffffffffffffffffff16632302440834620186a090336040518463ffffffff167c0100000000000000000000000000000000000000000000000000000000028152600401808273ffffffffffffffffffffffffffffffffffffffff1673ffffffffffffffffffffffffffffffffffffffff1681526020019150506020604051808303818589803b151561058a57600080fd5b88f1151561059757600080fd5b50505050506040518051905015156105ae57600080fd5b8273ffffffffffffffffffffffffffffffffffffffff163373ffffffffffffffffffffffffffffffffffffffff167f188fbedff25e3538bc31bbda15d084585f05d2a0e684e7c07131e63a5b87a80a346040518082815260200191505060405180910390a36001915050919050565b6000808311151561062d57600080fd5b6000602060ff1611151561064057600080fd5b33838361064b61077c565b808473ffffffffffffffffffffffffffffffffffffffff1673ffffffffffffffffffffffffffffffffffffffff16815260200183815260200182600019166000191681526020019350505050604051809103906000f08015156106ad57600080fd5b90508073ffffffffffffffffffffffffffffffffffffffff163373ffffffffffffffffffffffffffffffffffffffff167f690992ac155f8725f7df85845c2ebd10070e75fbcd7e2748ea3d139d683f449785856040518083815260200182600019166000191681526020019250505060405180910390a380905092915050565b6000809054906101000a900473ffffffffffffffffffffffffffffffffffffffff1681565b60016020528060005260406000206000915090508060000154908060010154908060020154905083565b604051610b598061078d8339019056006060604052341561000f57600080fd5b604051606080610b5983398101604052808051906020019091908051906020019091908051906020019091905050826000800160006101000a81548173ffffffffffffffffffffffffffffffffffffffff021916908373ffffffffffffffffffffffffffffffffffffffff1602179055508160006001018190555080600060020181600019169055506000600560006101000a81548160ff021916908360028111156100b757fe5b0217905550505050610a8b806100ce6000396000f3006060604052600436106100a4576000357c0100000000000000000000000000000000000000000000000000000000900463ffffffff16806323024408146100b157806331b8ff8e146100f75780633db71ca71461010c57806363bd1d4a1461016e57806379502c551461019b57806387f0f78514610206578063c19d93fb1461021b578063f0d3e74f14610252578063fa89401a1461029f578063ff14065e146102f0575b34156100af57600080fd5b005b6100dd600480803573ffffffffffffffffffffffffffffffffffffffff16906020019091905050610362565b604051808215151515815260200191505060405180910390f35b341561010257600080fd5b61010a610463565b005b341561011757600080fd5b610154600480803560ff1690602001909190803560ff1690602001909190803560ff1690602001909190803560ff1690602001909190505061051d565b604051808215151515815260200191505060405180910390f35b341561017957600080fd5b6101816105ca565b604051808215151515815260200191505060405180910390f35b34156101a657600080fd5b6101ae610735565b604051808473ffffffffffffffffffffffffffffffffffffffff1673ffffffffffffffffffffffffffffffffffffffff1681526020018381526020018260001916600019168152602001935050505060405180910390f35b341561021157600080fd5b61021961076d565b005b341561022657600080fd5b61022e610827565b6040518082600281111561023e57fe5b60ff16815260200191505060405180910390f35b341561025d57600080fd5b610289600480803573ffffffffffffffffffffffffffffffffffffffff1690602001909190505061083a565b6040518082815260200191505060405180910390f35b34156102aa57600080fd5b6102d6600480803573ffffffffffffffffffffffffffffffffffffffff16906020019091905050610852565b604051808215151515815260200191505060405180910390f35b34156102fb57600080fd5b610314600480803560ff169060200190919050506109e8565b604051808660ff1660ff1681526020018560ff1660ff1681526020018460ff1660ff1681526020018360ff1660ff168152602001821515151581526020019550505050505060405180910390f35b60008080600281111561037157fe5b600560009054906101000a900460ff16600281111561038c57fe5b14151561039857600080fd5b60008373ffffffffffffffffffffffffffffffffffffffff16141515156103be57600080fd5b34600460008573ffffffffffffffffffffffffffffffffffffffff1673ffffffffffffffffffffffffffffffffffffffff168152602001908152602001600020600082825401925050819055508273ffffffffffffffffffffffffffffffffffffffff167f8ed7a9ea80c3ce52e32135ad1215141cdd65ba61fd4cead3dde851f094011fd2346040518082815260200191505060405180910390a26001915050919050565b6000800160009054906101000a900473ffffffffffffffffffffffffffffffffffffffff1673ffffffffffffffffffffffffffffffffffffffff163373ffffffffffffffffffffffffffffffffffffffff161415156104c157600080fd5b60008060028111156104cf57fe5b600560009054906101000a900460ff1660028111156104ea57fe5b1415156104f657600080fd5b6002600560006101000a81548160ff0219169083600281111561051557fe5b021790555050565b600083600360008760ff1660ff16815260200190815260200160002060000160016101000a81548160ff021916908360ff16021790555082600360008760ff1660ff16815260200190815260200160002060000160026101000a81548160ff021916908360ff16021790555081600360008760ff1660ff16815260200190815260200160002060000160036101000a81548160ff021916908360ff16021790555060019050949350505050565b6000806000800160009054906101000a900473ffffffffffffffffffffffffffffffffffffffff1673ffffffffffffffffffffffffffffffffffffffff163373ffffffffffffffffffffffffffffffffffffffff1614151561062b57600080fd5b600080600281111561063957fe5b600560009054906101000a900460ff16600281111561065457fe5b14151561066057600080fd5b3073ffffffffffffffffffffffffffffffffffffffff163191506000800160009054906101000a900473ffffffffffffffffffffffffffffffffffffffff1673ffffffffffffffffffffffffffffffffffffffff166108fc839081150290604051600060405180830381858888f1935050505015156106de57600080fd5b3373ffffffffffffffffffffffffffffffffffffffff167f9f1a1f9af425ae40aa112c22d1499ae5b55d6fc008cede646cfcb9519bfd1ee1836040518082815260200191505060405180910390a260019250505090565b60008060000160009054906101000a900473ffffffffffffffffffffffffffffffffffffffff16908060010154908060020154905083565b6000800160009054906101000a900473ffffffffffffffffffffffffffffffffffffffff1673ffffffffffffffffffffffffffffffffffffffff163373ffffffffffffffffffffffffffffffffffffffff161415156107cb57600080fd5b60028060028111156107d957fe5b600560009054906101000a900460ff1660028111156107f457fe5b14151561080057600080fd5b6000600560006101000a81548160ff0219169083600281111561081f57fe5b021790555050565b600560009054906101000a900460ff1681565b60046020528060005260406000206000915090505481565b6000806000600460003373ffffffffffffffffffffffffffffffffffffffff1673ffffffffffffffffffffffffffffffffffffffff168152602001908152602001600020541115156108a357600080fd5b60008373ffffffffffffffffffffffffffffffffffffffff16141515156108c957600080fd5b600460008473ffffffffffffffffffffffffffffffffffffffff1673ffffffffffffffffffffffffffffffffffffffff1681526020019081526020016000205490506000600460008573ffffffffffffffffffffffffffffffffffffffff1673ffffffffffffffffffffffffffffffffffffffff168152602001908152602001600020819055508273ffffffffffffffffffffffffffffffffffffffff166108fc829081150290604051600060405180830381858888f19350505050151561099057600080fd5b8273ffffffffffffffffffffffffffffffffffffffff167fd37212af83afd79b23bfc053219a76db2c87d66f9af9ceaf1293d4fd6761c746826040518082815260200191505060405180910390a26001915050919050565b60036020528060005260406000206000915090508060000160009054906101000a900460ff16908060000160019054906101000a900460ff16908060000160029054906101000a900460ff16908060000160039054906101000a900460ff16908060000160049054906101000a900460ff169050855600a165627a7a72305820c2c36b841878cee05b76aa564f94f81305a1db96c2a74e65f5a478dcf0d07f850029a165627a7a72305820931198acee63423035fc67ca1bc5bc9a67daee6adf8ccc9cb9b55259ffac5c5a0029",
  "source": "pragma solidity ^0.4.18;\n\nimport './Project.sol';\n\n\ncontract Freeelio {\n\n    address public owner;\n\n    struct ProviderStruct {\n        bytes32 name;\n        bytes32 description;\n        bytes32 imageUrl;\n    }\n\n    mapping(address => ProviderStruct) public provider;\n\n    modifier onlyOwner() {require(msg.sender == owner); _;}\n\n    event ProjectLog(\n        address indexed _projectOwner,\n        address indexed _projectAddr,\n        uint256 _activatedAmount,\n        bytes32 _projectName);\n\n    event ContributionLog(\n        address indexed _patron,\n        address indexed _projectAddr,\n        uint256 _contribution);\n\n    event NewProviderLog(\n        address indexed _ProviderAddr,\n        bytes32 _ProviderName,\n        bytes32 _description,\n        bytes32 _imageUrl);\n\n    function () public {\n\n    }\n\n    function Freeelio() public {\n        owner = msg.sender;\n    }\n\n    // add a new Provider record\n    function addProvider(\n        address _wallet,\n        bytes32 _name,\n        bytes32 _description,\n        bytes32 _imageUrl)\n        public\n        onlyOwner\n        returns(bool)\n    {\n        provider[_wallet].name = _name;\n        provider[_wallet].description = _description;\n        provider[_wallet].imageUrl = _imageUrl;\n\n        NewProviderLog(\n            _wallet,\n            _name,\n            _description,\n            _imageUrl\n        );\n\n        return true;\n    }\n\n    //onlyProvider's address should be able to withdraw donated funds\n    function createProject(\n        uint256 _activatedAmount,\n        bytes32 _projectName)\n        public\n        returns (address projectAddr)\n    {\n        require(_activatedAmount > 0x00); //must have a target activated amount greater than zero\n        require(_projectName.length > 0x00); //must have a name\n\n        projectAddr = new Project(\n            msg.sender,\n            _activatedAmount,\n            _projectName\n        );\n\n        //filter these events to get list of projects in F/E\n        //msg.sender is projectOwner should be provider\n        ProjectLog(\n            msg.sender,\n            projectAddr,\n            _activatedAmount,\n            _projectName\n        );\n        return projectAddr;\n    }\n\n    //anyone can contribute\n    function contribute(address _projectAddr)\n        public\n        payable\n        returns (bool success)\n    {\n        Project project = Project(_projectAddr);\n        if (!project.fund.value(msg.value).gas(100000)(msg.sender)) {\n            revert();\n        } //~0.27 cents\n\n        ContributionLog(msg.sender, _projectAddr, msg.value);\n        return true;\n    }\n\n    function kill() public onlyOwner {\n        selfdestruct(owner);\n    }\n\n}\n",
  "sourcePath": "/Users/Shared/freeelio/contracts/Freeelio.sol",
  "compiler": {
    "name": "solc",
    "version": "0.4.18+commit.9cf6e910.Emscripten.clang"
  },
  "schemaVersion": "1.0.1",
  "updatedAt": "2018-03-04T22:33:59.657Z"
}