{
  "contractName": "Project",
  "abi": [
    {
      "constant": true,
      "inputs": [],
      "name": "pledgedAmount",
      "outputs": [
        {
          "name": "",
          "type": "uint256"
        }
      ],
      "payable": false,
      "stateMutability": "view",
      "type": "function"
    },
    {
      "constant": true,
      "inputs": [],
      "name": "projectName",
      "outputs": [
        {
          "name": "",
          "type": "bytes32"
        }
      ],
      "payable": false,
      "stateMutability": "view",
      "type": "function"
    },
    {
      "constant": true,
      "inputs": [],
      "name": "projectOwner",
      "outputs": [
        {
          "name": "",
          "type": "address"
        }
      ],
      "payable": false,
      "stateMutability": "view",
      "type": "function"
    },
    {
      "constant": true,
      "inputs": [],
      "name": "state",
      "outputs": [
        {
          "name": "",
          "type": "uint8"
        }
      ],
      "payable": false,
      "stateMutability": "view",
      "type": "function"
    },
    {
      "constant": true,
      "inputs": [
        {
          "name": "",
          "type": "address"
        }
      ],
      "name": "patronage",
      "outputs": [
        {
          "name": "",
          "type": "uint256"
        }
      ],
      "payable": false,
      "stateMutability": "view",
      "type": "function"
    },
    {
      "inputs": [
        {
          "name": "_projectOwner",
          "type": "address"
        },
        {
          "name": "_pledgedAmount",
          "type": "uint256"
        },
        {
          "name": "_projectName",
          "type": "bytes32"
        }
      ],
      "payable": false,
      "stateMutability": "nonpayable",
      "type": "constructor"
    },
    {
      "payable": false,
      "stateMutability": "nonpayable",
      "type": "fallback"
    },
    {
      "anonymous": false,
      "inputs": [
        {
          "indexed": false,
          "name": "_addr",
          "type": "address"
        },
        {
          "indexed": false,
          "name": "_uint",
          "type": "uint256"
        },
        {
          "indexed": false,
          "name": "_bytes32",
          "type": "bytes32"
        }
      ],
      "name": "debug",
      "type": "event"
    },
    {
      "constant": false,
      "inputs": [
        {
          "name": "_providerAddr",
          "type": "address"
        },
        {
          "name": "_name",
          "type": "bytes32"
        },
        {
          "name": "_description",
          "type": "bytes32"
        },
        {
          "name": "_imageUrl",
          "type": "bytes32"
        },
        {
          "name": "_apiURI",
          "type": "bytes32"
        }
      ],
      "name": "addProvider",
      "outputs": [
        {
          "name": "success",
          "type": "bool"
        }
      ],
      "payable": false,
      "stateMutability": "nonpayable",
      "type": "function"
    },
    {
      "constant": false,
      "inputs": [
        {
          "name": "_providerAddr",
          "type": "address"
        },
        {
          "name": "_reading",
          "type": "uint32[5][]"
        }
      ],
      "name": "addReading",
      "outputs": [
        {
          "name": "success",
          "type": "bool"
        }
      ],
      "payable": false,
      "stateMutability": "nonpayable",
      "type": "function"
    },
    {
      "constant": false,
      "inputs": [
        {
          "name": "_patron",
          "type": "address"
        }
      ],
      "name": "fund",
      "outputs": [
        {
          "name": "success",
          "type": "bool"
        }
      ],
      "payable": true,
      "stateMutability": "payable",
      "type": "function"
    },
    {
      "constant": true,
      "inputs": [
        {
          "name": "_providerAddr",
          "type": "address"
        },
        {
          "name": "_index",
          "type": "uint256"
        }
      ],
      "name": "getProviderReading",
      "outputs": [
        {
          "name": "reading",
          "type": "uint32[5]"
        }
      ],
      "payable": false,
      "stateMutability": "view",
      "type": "function"
    },
    {
      "constant": true,
      "inputs": [
        {
          "name": "_providerAddr",
          "type": "address"
        }
      ],
      "name": "getProviderReadingCount",
      "outputs": [
        {
          "name": "count",
          "type": "uint256"
        }
      ],
      "payable": false,
      "stateMutability": "view",
      "type": "function"
    },
    {
      "constant": false,
      "inputs": [],
      "name": "suspendProject",
      "outputs": [],
      "payable": false,
      "stateMutability": "nonpayable",
      "type": "function"
    },
    {
      "constant": false,
      "inputs": [],
      "name": "resumeProject",
      "outputs": [],
      "payable": false,
      "stateMutability": "nonpayable",
      "type": "function"
    }
  ],
  "bytecode": "0x6060604052341561000f57600080fd5b604051606080610ee083398101604052808051906020019091908051906020019091908051906020019091905050826000806101000a81548173ffffffffffffffffffffffffffffffffffffffff021916908373ffffffffffffffffffffffffffffffffffffffff1602179055508160018190555080600281600019169055506000600560006101000a81548160ff021916908360028111156100ae57fe5b0217905550505050610e1b806100c56000396000f3006060604052600436106100ba576000357c0100000000000000000000000000000000000000000000000000000000900463ffffffff16806323024408146100c757806331b8ff8e1461010d57806345c0c385146101225780634fe5bea7146101ef5780637943210e1461023c57806387f0f785146102655780639125218d1461027a5780639a33e300146102ff578063a4475ce414610330578063ad2c566e14610385578063c19d93fb14610403578063f0d3e74f1461043a575b34156100c557600080fd5b005b6100f3600480803573ffffffffffffffffffffffffffffffffffffffff16906020019091905050610487565b604051808215151515815260200191505060405180910390f35b341561011857600080fd5b61012061053a565b005b341561012d57600080fd5b6101d5600480803573ffffffffffffffffffffffffffffffffffffffff169060200190919080359060200190820180359060200190808060200260200160405190810160405280939291908181526020016000905b828210156101c757848483905060a002016005806020026040519081016040528092919082600560200280828437820191505050505081526020019060010190610182565b5050505050919050506105f1565b604051808215151515815260200191505060405180910390f35b34156101fa57600080fd5b610226600480803573ffffffffffffffffffffffffffffffffffffffff1690602001909190505061080f565b6040518082815260200191505060405180910390f35b341561024757600080fd5b61024f61085e565b6040518082815260200191505060405180910390f35b341561027057600080fd5b610278610864565b005b341561028557600080fd5b6102e5600480803573ffffffffffffffffffffffffffffffffffffffff169060200190919080356000191690602001909190803560001916906020019091908035600019169060200190919080356000191690602001909190505061091b565b604051808215151515815260200191505060405180910390f35b341561030a57600080fd5b610312610b0d565b60405180826000191660001916815260200191505060405180910390f35b341561033b57600080fd5b610343610b13565b604051808273ffffffffffffffffffffffffffffffffffffffff1673ffffffffffffffffffffffffffffffffffffffff16815260200191505060405180910390f35b341561039057600080fd5b6103c5600480803573ffffffffffffffffffffffffffffffffffffffff16906020019091908035906020019091905050610b38565b6040518082600560200280838360005b838110156103f05780820151818401526020810190506103d5565b5050505090500191505060405180910390f35b341561040e57600080fd5b610416610c61565b6040518082600281111561042657fe5b60ff16815260200191505060405180910390f35b341561044557600080fd5b610471600480803573ffffffffffffffffffffffffffffffffffffffff16906020019091905050610c74565b6040518082815260200191505060405180910390f35b60008080600281111561049657fe5b600560009054906101000a900460ff1660028111156104b157fe5b1415156104bd57600080fd5b60008373ffffffffffffffffffffffffffffffffffffffff16141515156104e357600080fd5b34600460008573ffffffffffffffffffffffffffffffffffffffff1673ffffffffffffffffffffffffffffffffffffffff168152602001908152602001600020600082825401925050819055506001915050919050565b3373ffffffffffffffffffffffffffffffffffffffff166000809054906101000a900473ffffffffffffffffffffffffffffffffffffffff1673ffffffffffffffffffffffffffffffffffffffff1614151561059557600080fd5b60008060028111156105a357fe5b600560009054906101000a900460ff1660028111156105be57fe5b1415156105ca57600080fd5b6002600560006101000a81548160ff021916908360028111156105e957fe5b021790555050565b600080836000600102600360008373ffffffffffffffffffffffffffffffffffffffff1673ffffffffffffffffffffffffffffffffffffffff16815260200190815260200160002060040154600019161415151561064e57600080fd5b600091505b83518260ff16101561080357600360008673ffffffffffffffffffffffffffffffffffffffff1673ffffffffffffffffffffffffffffffffffffffff16815260200190815260200160002060000180548060010182816106b39190610c8c565b91600052602060002090016000868560ff168151811015156106d157fe5b9060200190602002015190919091509060056106ee929190610cb8565b5050838260ff1681518110151561070157fe5b90602001906020020151600360058110151561071957fe5b602002015163ffffffff16600360008773ffffffffffffffffffffffffffffffffffffffff1673ffffffffffffffffffffffffffffffffffffffff16815260200190815260200160002060010160008282540192505081905550838260ff1681518110151561078457fe5b90602001906020020151600460058110151561079c57fe5b602002015163ffffffff16600360008773ffffffffffffffffffffffffffffffffffffffff1673ffffffffffffffffffffffffffffffffffffffff168152602001908152602001600020600201600082825401925050819055508180600101925050610653565b60019250505092915050565b6000600360008373ffffffffffffffffffffffffffffffffffffffff1673ffffffffffffffffffffffffffffffffffffffff168152602001908152602001600020600001805490509050919050565b60015481565b3373ffffffffffffffffffffffffffffffffffffffff166000809054906101000a900473ffffffffffffffffffffffffffffffffffffffff1673ffffffffffffffffffffffffffffffffffffffff161415156108bf57600080fd5b60028060028111156108cd57fe5b600560009054906101000a900460ff1660028111156108e857fe5b1415156108f457600080fd5b6000600560006101000a81548160ff0219169083600281111561091357fe5b021790555050565b60003373ffffffffffffffffffffffffffffffffffffffff166000809054906101000a900473ffffffffffffffffffffffffffffffffffffffff1673ffffffffffffffffffffffffffffffffffffffff1614151561097857600080fd5b600060010285600019161415151561098f57600080fd5b60006001028460001916141515156109a657600080fd5b60006001028360001916141515156109bd57600080fd5b60006001028260001916141515156109d457600080fd5b84600360008873ffffffffffffffffffffffffffffffffffffffff1673ffffffffffffffffffffffffffffffffffffffff168152602001908152602001600020600401816000191690555083600360008873ffffffffffffffffffffffffffffffffffffffff1673ffffffffffffffffffffffffffffffffffffffff168152602001908152602001600020600501816000191690555082600360008873ffffffffffffffffffffffffffffffffffffffff1673ffffffffffffffffffffffffffffffffffffffff168152602001908152602001600020600601816000191690555081600360008873ffffffffffffffffffffffffffffffffffffffff1673ffffffffffffffffffffffffffffffffffffffff16815260200190815260200160002060070181600019169055506001905095945050505050565b60025481565b6000809054906101000a900473ffffffffffffffffffffffffffffffffffffffff1681565b610b40610d5b565b6001600360008573ffffffffffffffffffffffffffffffffffffffff1673ffffffffffffffffffffffffffffffffffffffff16815260200190815260200160002060000180549050038211151515610b9757600080fd5b600360008473ffffffffffffffffffffffffffffffffffffffff1673ffffffffffffffffffffffffffffffffffffffff16815260200190815260200160002060000182815481101515610be657fe5b9060005260206000209001600580602002604051908101604052809291908260058015610c54576020028201916000905b82829054906101000a900463ffffffff1663ffffffff1681526020019060040190602082600301049283019260010382029150808411610c175790505b5050505050905092915050565b600560009054906101000a900460ff1681565b60046020528060005260406000206000915090505481565b815481835581811511610cb357818360005260206000209182019101610cb29190610d89565b5b505050565b826005600701600890048101928215610d4a5791602002820160005b83821115610d1857835183826101000a81548163ffffffff021916908363ffffffff1602179055509260200192600401602081600301049283019260010302610cd4565b8015610d485782816101000a81549063ffffffff0219169055600401602081600301049283019260010302610d18565b505b509050610d579190610db5565b5090565b60a0604051908101604052806005905b600063ffffffff16815260200190600190039081610d6b5790505090565b610db291905b80821115610dae5760008181610da59190610de8565b50600101610d8f565b5090565b90565b610de591905b80821115610de157600081816101000a81549063ffffffff021916905550600101610dbb565b5090565b90565b50600090555600a165627a7a723058209151f4ee3795222b56ffde62407396964677e18de78551440c06fe1af2aa81d90029",
  "source": "pragma solidity ^0.4.19;\n\n\ncontract Project {\n\n    address public projectOwner;\n    uint256 public pledgedAmount;\n    bytes32 public projectName;\n\n    struct ProviderStruct {\n        uint32[5][] readings;\n        uint256 totalBoughtTk;\n        uint256 totalRechargeAmountTk;\n        uint256 donationsReceivedTk;\n        bytes32 name;\n        bytes32 description;\n        bytes32 imageUrl;\n        bytes32 apiURI;\n    }\n\n    mapping(address => ProviderStruct) provider;\n    mapping(address => uint) public patronage;\n\n    enum State { Running, Expired, Suspended }\n    State public state;\n\n    modifier inState(State _state) {require(state == _state); _;}\n    modifier isOwner() {require(projectOwner == msg.sender); _;}\n    modifier isProvider(address _providerAddr) {require(provider[_providerAddr].name != 0x00); _;}\n\n    event debug(address _addr, uint256 _uint, bytes32 _bytes32);\n\n    //fallback\n    function() public {\n\n    }\n\n    //constructor\n    // gas 1113854 txCost; 804286 exCost;\n    // \"0xca35b7d915458ef540ade6068dfe2f44e8fa733c\", 90000, \"Help Bangladesh Farming Village\"\n    function Project(\n        address _projectOwner,\n        uint256 _pledgedAmount,\n        bytes32 _projectName)\n        public\n    {\n        projectOwner = _projectOwner;\n        pledgedAmount = _pledgedAmount;\n        projectName = _projectName;\n        state = State.Running;\n    }\n\n    // \"0xca35b7d915458ef540ade6068dfe2f44e8fa733c\", \"Solshare\", \"Solshare Bangladesh\", \"http://test.com/logo.jpg\", \"http://test.com/api/\"\n    // gas 109207 txCost;81471 exCost;\n    function addProvider(\n        address _providerAddr,\n        bytes32 _name,\n        bytes32 _description,\n        bytes32 _imageUrl,\n        bytes32 _apiURI)\n        public\n        isOwner\n        returns(bool success)\n    {\n        require(_name != 0x00);\n        require(_description != 0x00);\n        require(_imageUrl != 0x00);\n        require(_apiURI != 0x00);\n\n        provider[_providerAddr].name = _name;\n        provider[_providerAddr].description = _description;\n        provider[_providerAddr].imageUrl = _imageUrl;\n        provider[_providerAddr].apiURI = _apiURI;\n\n        // debug(msg.sender, 0, 0);\n        return true;\n    }\n\n    //new reading stub. depending on frequency, could be a case for state channels;\n    // \"0xca35b7d915458ef540ade6068dfe2f44e8fa733c\", [[1,1,1,1,1], [2,2,2,2,2]]\n    // _reading[i][0] = solGridID\n    // _reading[i][1] = gridID\n    // _reading[i][2] = monthBoughtWh\n    // _reading[i][3] = monthBoughtTk\n    // _reading[i][4] = rechargeAmountTk\n    // gas 221739 txCost; 196755 exCost;\n    function addReading(\n        address _providerAddr,\n        uint32[5][] _reading)\n        public\n        isProvider(_providerAddr)\n        returns (bool success)\n    {\n\n        for (uint8 i = 0; i < _reading.length; i ++) {\n            provider[_providerAddr].readings.push(_reading[i]);\n            provider[_providerAddr].totalBoughtTk += _reading[i][3];\n            provider[_providerAddr].totalRechargeAmountTk += _reading[i][4];\n        }\n\n        return true;\n    }\n\n    //available to anyone the project\n    function fund(address _patron)\n        public\n        inState(State.Running)\n        payable\n        returns (bool success)\n    {\n        require(_patron != 0x00);\n\n        patronage[_patron] += msg.value;\n\n        return true;\n    }\n\n    // \"0xca35b7d915458ef540ade6068dfe2f44e8fa733c\", 0\n    function getProviderReading(address _providerAddr, uint _index)\n        external\n        view\n        returns(uint32[5] reading)\n    {\n        require(_index <= provider[_providerAddr].readings.length-1);\n\n        return provider[_providerAddr].readings[_index];\n    }\n\n    // \"0xca35b7d915458ef540ade6068dfe2f44e8fa733c\"\n    function getProviderReadingCount(address _providerAddr)\n        external\n        view\n        returns(uint count)\n    {\n        return provider[_providerAddr].readings.length;\n    }\n\n    function suspendProject()\n        external\n        isOwner\n        inState(State.Running)\n    {\n        state = State.Suspended;\n    }\n\n    function resumeProject()\n        external\n        isOwner\n        inState(State.Suspended)\n    {\n      state = State.Running;\n    }\n\n}\n",
  "sourcePath": "/Users/Shared/freeelio/contracts/Project.sol",
  "compiler": {
    "name": "solc",
    "version": "0.4.19+commit.c4cbbb05.Emscripten.clang"
  },
  "schemaVersion": "2.0.0",
  "updatedAt": "2018-03-22T20:31:14.073Z"
}