{
  "contractName": "Project",
  "abi": [
    {
      "constant": false,
      "inputs": [
        {
          "name": "_patron",
          "type": "address"
        }
      ],
      "name": "fund",
      "outputs": [
        {
          "name": "success",
          "type": "bool"
        }
      ],
      "payable": true,
      "stateMutability": "payable",
      "type": "function"
    },
    {
      "constant": false,
      "inputs": [],
      "name": "suspendProject",
      "outputs": [],
      "payable": false,
      "stateMutability": "nonpayable",
      "type": "function"
    },
    {
      "constant": false,
      "inputs": [
        {
          "name": "_solShareID",
          "type": "uint8"
        },
        {
          "name": "_gridID",
          "type": "uint8"
        },
        {
          "name": "_comsumptionWh",
          "type": "uint8"
        },
        {
          "name": "_rechargeAmountTk",
          "type": "uint8"
        }
      ],
      "name": "addReading",
      "outputs": [
        {
          "name": "success",
          "type": "bool"
        }
      ],
      "payable": false,
      "stateMutability": "nonpayable",
      "type": "function"
    },
    {
      "constant": false,
      "inputs": [],
      "name": "payout",
      "outputs": [
        {
          "name": "success",
          "type": "bool"
        }
      ],
      "payable": false,
      "stateMutability": "nonpayable",
      "type": "function"
    },
    {
      "constant": true,
      "inputs": [],
      "name": "config",
      "outputs": [
        {
          "name": "projectOwner",
          "type": "address"
        },
        {
          "name": "activatedAmount",
          "type": "uint256"
        },
        {
          "name": "projectName",
          "type": "bytes32"
        }
      ],
      "payable": false,
      "stateMutability": "view",
      "type": "function"
    },
    {
      "constant": false,
      "inputs": [],
      "name": "resumeProject",
      "outputs": [],
      "payable": false,
      "stateMutability": "nonpayable",
      "type": "function"
    },
    {
      "constant": true,
      "inputs": [],
      "name": "state",
      "outputs": [
        {
          "name": "",
          "type": "uint8"
        }
      ],
      "payable": false,
      "stateMutability": "view",
      "type": "function"
    },
    {
      "constant": true,
      "inputs": [],
      "name": "getActivatedAmount",
      "outputs": [
        {
          "name": "",
          "type": "uint256"
        }
      ],
      "payable": false,
      "stateMutability": "view",
      "type": "function"
    },
    {
      "constant": true,
      "inputs": [
        {
          "name": "",
          "type": "address"
        }
      ],
      "name": "patronage",
      "outputs": [
        {
          "name": "",
          "type": "uint256"
        }
      ],
      "payable": false,
      "stateMutability": "view",
      "type": "function"
    },
    {
      "constant": false,
      "inputs": [
        {
          "name": "_patron",
          "type": "address"
        }
      ],
      "name": "refund",
      "outputs": [
        {
          "name": "success",
          "type": "bool"
        }
      ],
      "payable": false,
      "stateMutability": "nonpayable",
      "type": "function"
    },
    {
      "constant": true,
      "inputs": [
        {
          "name": "",
          "type": "uint8"
        }
      ],
      "name": "meters",
      "outputs": [
        {
          "name": "solShareID",
          "type": "uint8"
        },
        {
          "name": "gridID",
          "type": "uint8"
        },
        {
          "name": "comsumptionWh",
          "type": "uint8"
        },
        {
          "name": "rechargeAmountTk",
          "type": "uint8"
        },
        {
          "name": "active",
          "type": "bool"
        }
      ],
      "payable": false,
      "stateMutability": "view",
      "type": "function"
    },
    {
      "inputs": [
        {
          "name": "_projectOwner",
          "type": "address"
        },
        {
          "name": "_activatedAmount",
          "type": "uint256"
        },
        {
          "name": "_projectName",
          "type": "bytes32"
        }
      ],
      "payable": false,
      "stateMutability": "nonpayable",
      "type": "constructor"
    },
    {
      "payable": false,
      "stateMutability": "nonpayable",
      "type": "fallback"
    },
    {
      "anonymous": false,
      "inputs": [
        {
          "indexed": true,
          "name": "_patron",
          "type": "address"
        },
        {
          "indexed": false,
          "name": "_amount",
          "type": "uint256"
        }
      ],
      "name": "FundingLog",
      "type": "event"
    },
    {
      "anonymous": false,
      "inputs": [
        {
          "indexed": true,
          "name": "_patron",
          "type": "address"
        },
        {
          "indexed": false,
          "name": "_amount",
          "type": "uint256"
        }
      ],
      "name": "RefundLog",
      "type": "event"
    },
    {
      "anonymous": false,
      "inputs": [
        {
          "indexed": true,
          "name": "_projectOwner",
          "type": "address"
        },
        {
          "indexed": false,
          "name": "_amount",
          "type": "uint256"
        }
      ],
      "name": "PayoutLog",
      "type": "event"
    }
  ],
  "bytecode": "0x6060604052341561000f57600080fd5b604051606080610baf83398101604052808051906020019091908051906020019091908051906020019091905050826000800160006101000a81548173ffffffffffffffffffffffffffffffffffffffff021916908373ffffffffffffffffffffffffffffffffffffffff1602179055508160006001018190555080600060020181600019169055506000600560006101000a81548160ff021916908360028111156100b757fe5b0217905550505050610ae1806100ce6000396000f3006060604052600436106100af576000357c0100000000000000000000000000000000000000000000000000000000900463ffffffff16806323024408146100bc57806331b8ff8e146101025780633db71ca71461011757806363bd1d4a1461017957806379502c55146101a657806387f0f78514610211578063c19d93fb14610226578063c1f85c7e1461025d578063f0d3e74f14610286578063fa89401a146102d3578063ff14065e14610324575b34156100ba57600080fd5b005b6100e8600480803573ffffffffffffffffffffffffffffffffffffffff16906020019091905050610396565b604051808215151515815260200191505060405180910390f35b341561010d57600080fd5b610115610497565b005b341561012257600080fd5b61015f600480803560ff1690602001909190803560ff1690602001909190803560ff1690602001909190803560ff16906020019091905050610551565b604051808215151515815260200191505060405180910390f35b341561018457600080fd5b61018c610614565b604051808215151515815260200191505060405180910390f35b34156101b157600080fd5b6101b961077f565b604051808473ffffffffffffffffffffffffffffffffffffffff1673ffffffffffffffffffffffffffffffffffffffff1681526020018381526020018260001916600019168152602001935050505060405180910390f35b341561021c57600080fd5b6102246107b7565b005b341561023157600080fd5b610239610871565b6040518082600281111561024957fe5b60ff16815260200191505060405180910390f35b341561026857600080fd5b610270610884565b6040518082815260200191505060405180910390f35b341561029157600080fd5b6102bd600480803573ffffffffffffffffffffffffffffffffffffffff16906020019091905050610890565b6040518082815260200191505060405180910390f35b34156102de57600080fd5b61030a600480803573ffffffffffffffffffffffffffffffffffffffff169060200190919050506108a8565b604051808215151515815260200191505060405180910390f35b341561032f57600080fd5b610348600480803560ff16906020019091905050610a3e565b604051808660ff1660ff1681526020018560ff1660ff1681526020018460ff1660ff1681526020018360ff1660ff168152602001821515151581526020019550505050505060405180910390f35b6000808060028111156103a557fe5b600560009054906101000a900460ff1660028111156103c057fe5b1415156103cc57600080fd5b60008373ffffffffffffffffffffffffffffffffffffffff16141515156103f257600080fd5b34600460008573ffffffffffffffffffffffffffffffffffffffff1673ffffffffffffffffffffffffffffffffffffffff168152602001908152602001600020600082825401925050819055508273ffffffffffffffffffffffffffffffffffffffff167f8ed7a9ea80c3ce52e32135ad1215141cdd65ba61fd4cead3dde851f094011fd2346040518082815260200191505060405180910390a26001915050919050565b6000800160009054906101000a900473ffffffffffffffffffffffffffffffffffffffff1673ffffffffffffffffffffffffffffffffffffffff163373ffffffffffffffffffffffffffffffffffffffff161415156104f557600080fd5b600080600281111561050357fe5b600560009054906101000a900460ff16600281111561051e57fe5b14151561052a57600080fd5b6002600560006101000a81548160ff0219169083600281111561054957fe5b021790555050565b600083600360008760ff1660ff16815260200190815260200160002060000160016101000a81548160ff021916908360ff16021790555082600360008760ff1660ff16815260200190815260200160002060000160026101000a81548160ff021916908360ff16021790555081600360008760ff1660ff16815260200190815260200160002060000160036101000a81548160ff021916908360ff1602179055508160ff1660006001016000828254019250508190555060019050949350505050565b6000806000800160009054906101000a900473ffffffffffffffffffffffffffffffffffffffff1673ffffffffffffffffffffffffffffffffffffffff163373ffffffffffffffffffffffffffffffffffffffff1614151561067557600080fd5b600080600281111561068357fe5b600560009054906101000a900460ff16600281111561069e57fe5b1415156106aa57600080fd5b3073ffffffffffffffffffffffffffffffffffffffff163191506000800160009054906101000a900473ffffffffffffffffffffffffffffffffffffffff1673ffffffffffffffffffffffffffffffffffffffff166108fc839081150290604051600060405180830381858888f19350505050151561072857600080fd5b3373ffffffffffffffffffffffffffffffffffffffff167f9f1a1f9af425ae40aa112c22d1499ae5b55d6fc008cede646cfcb9519bfd1ee1836040518082815260200191505060405180910390a260019250505090565b60008060000160009054906101000a900473ffffffffffffffffffffffffffffffffffffffff16908060010154908060020154905083565b6000800160009054906101000a900473ffffffffffffffffffffffffffffffffffffffff1673ffffffffffffffffffffffffffffffffffffffff163373ffffffffffffffffffffffffffffffffffffffff1614151561081557600080fd5b600280600281111561082357fe5b600560009054906101000a900460ff16600281111561083e57fe5b14151561084a57600080fd5b6000600560006101000a81548160ff0219169083600281111561086957fe5b021790555050565b600560009054906101000a900460ff1681565b60008060010154905090565b60046020528060005260406000206000915090505481565b6000806000600460003373ffffffffffffffffffffffffffffffffffffffff1673ffffffffffffffffffffffffffffffffffffffff168152602001908152602001600020541115156108f957600080fd5b60008373ffffffffffffffffffffffffffffffffffffffff161415151561091f57600080fd5b600460008473ffffffffffffffffffffffffffffffffffffffff1673ffffffffffffffffffffffffffffffffffffffff1681526020019081526020016000205490506000600460008573ffffffffffffffffffffffffffffffffffffffff1673ffffffffffffffffffffffffffffffffffffffff168152602001908152602001600020819055508273ffffffffffffffffffffffffffffffffffffffff166108fc829081150290604051600060405180830381858888f1935050505015156109e657600080fd5b8273ffffffffffffffffffffffffffffffffffffffff167fd37212af83afd79b23bfc053219a76db2c87d66f9af9ceaf1293d4fd6761c746826040518082815260200191505060405180910390a26001915050919050565b60036020528060005260406000206000915090508060000160009054906101000a900460ff16908060000160019054906101000a900460ff16908060000160029054906101000a900460ff16908060000160039054906101000a900460ff16908060000160049054906101000a900460ff169050855600a165627a7a72305820a667b3e51a8d770f12a1778ad94c7690ed82cc9d620f2624737646736309a86a0029",
  "source": "pragma solidity ^0.4.18;\n\n\ncontract Project {\n\n    struct ProjectStruct {\n        address projectOwner;\n        uint256 activatedAmount;\n        bytes32 projectName;\n    }\n\n    ProjectStruct public config;\n\n    struct MeterStruct {\n        uint8 solShareID; //11000001 - 11999999\n        uint8 gridID; //1 - 9999\n        uint8 comsumptionWh; //0 - 999999\n        uint8 rechargeAmountTk; //0 - 999999\n        bool active;\n    }\n\n    mapping(uint8 => MeterStruct) public meters;\n    mapping(address => uint) public patronage;\n\n    enum State { Running, Expired, Suspended }\n    State public state;\n\n    modifier isPatron() {require(patronage[msg.sender] > 0); _;}\n    modifier isOwner() {require(msg.sender == config.projectOwner); _;}\n    modifier inState(State _state) {require(state == _state); _;}\n\n    event FundingLog(address indexed _patron, uint256 _amount);\n    event RefundLog(address indexed _patron, uint256 _amount);\n    event PayoutLog(address indexed _projectOwner, uint256 _amount);\n\n    //fallback\n    function() public {\n\n    }\n\n    //constructor\n    function Project(\n        address _projectOwner,\n        uint256 _activatedAmount,\n        bytes32 _projectName)\n        public\n    {\n        config.projectOwner = _projectOwner;\n        config.activatedAmount = _activatedAmount;\n        config.projectName = _projectName;\n        state = State.Running;\n    }\n\n    //new reading stub. depending on frequency, could be a case\n    //for state channels;\n    function addReading(\n        uint8 _solShareID,\n        uint8 _gridID,\n        uint8 _comsumptionWh,\n        uint8 _rechargeAmountTk)\n        public\n        returns (bool success)\n    {\n        // solShareID is between 11000001 - 11999999\n        // gridID is between 1 - 9999\n        // comsumptionWh is between 0 - 999999\n        // rechargeAmountTk is between 0 - 999999\n\n        meters[_solShareID].gridID = _gridID;\n        meters[_solShareID].comsumptionWh = _comsumptionWh;\n        meters[_solShareID].rechargeAmountTk = _rechargeAmountTk;\n\n        //this needs to be the tk to euro conversion\n        config.activatedAmount += _rechargeAmountTk;\n\n        return true;\n    }\n\n    //available to anyone\n    function fund(address _patron)\n        public\n        inState(State.Running)\n        payable\n        returns (bool success)\n    {\n        require(_patron != 0x00);\n\n        patronage[_patron] += msg.value;\n\n        FundingLog(_patron, msg.value);\n        return true;\n    }\n\n    //available to projectOwner at any point as long as project is running\n    function payout()\n        public\n        isOwner\n        inState(State.Running)\n        returns (bool success)\n    {\n        uint256 amount = this.balance;\n\n        config.projectOwner.transfer(amount);\n\n        PayoutLog(msg.sender, amount);\n        return true;\n    }\n\n    //available to patrons after contributedAmount, if not Suspended\n    function refund(address _patron)\n        public\n        isPatron\n        //inState(State.Expired)\n        returns (bool success)\n    {\n        require(_patron != 0x00);\n\n        uint256 amount = patronage[_patron];\n        patronage[_patron] = 0x00;\n\n        _patron.transfer(amount);\n\n        RefundLog(_patron, amount);\n        return true;\n    }\n\n    function suspendProject()\n        external\n        isOwner\n        inState(State.Running)\n    {\n        state = State.Suspended;\n    }\n\n    function resumeProject()\n        external\n        isOwner\n        inState(State.Suspended)\n    {\n      state = State.Running;\n    }\n\n    function getActivatedAmount()\n        external\n        view\n        returns (uint256)\n    {\n        return config.activatedAmount;\n    }\n\n}\n",
  "sourcePath": "/Users/Shared/freeelio/contracts/Project.sol",
  "compiler": {
    "name": "solc",
    "version": "0.4.18+commit.9cf6e910.Emscripten.clang"
  },
  "schemaVersion": "1.0.1",
  "updatedAt": "2018-03-19T18:32:03.087Z"
}