{
  "contractName": "Project",
  "abi": [
    {
      "constant": true,
      "inputs": [],
      "name": "pledgedAmount",
      "outputs": [
        {
          "name": "",
          "type": "uint256"
        }
      ],
      "payable": false,
      "stateMutability": "view",
      "type": "function"
    },
    {
      "constant": true,
      "inputs": [],
      "name": "projectName",
      "outputs": [
        {
          "name": "",
          "type": "bytes32"
        }
      ],
      "payable": false,
      "stateMutability": "view",
      "type": "function"
    },
    {
      "constant": true,
      "inputs": [],
      "name": "projectOwner",
      "outputs": [
        {
          "name": "",
          "type": "address"
        }
      ],
      "payable": false,
      "stateMutability": "view",
      "type": "function"
    },
    {
      "constant": true,
      "inputs": [],
      "name": "state",
      "outputs": [
        {
          "name": "",
          "type": "uint8"
        }
      ],
      "payable": false,
      "stateMutability": "view",
      "type": "function"
    },
    {
      "constant": true,
      "inputs": [
        {
          "name": "",
          "type": "address"
        }
      ],
      "name": "patronage",
      "outputs": [
        {
          "name": "",
          "type": "uint256"
        }
      ],
      "payable": false,
      "stateMutability": "view",
      "type": "function"
    },
    {
      "inputs": [
        {
          "name": "_projectOwner",
          "type": "address"
        },
        {
          "name": "_pledgedAmount",
          "type": "uint256"
        },
        {
          "name": "_projectName",
          "type": "bytes32"
        }
      ],
      "payable": false,
      "stateMutability": "nonpayable",
      "type": "constructor"
    },
    {
      "payable": false,
      "stateMutability": "nonpayable",
      "type": "fallback"
    },
    {
      "anonymous": false,
      "inputs": [
        {
          "indexed": false,
          "name": "_addr",
          "type": "address"
        },
        {
          "indexed": false,
          "name": "_uint",
          "type": "uint256"
        },
        {
          "indexed": false,
          "name": "_bytes32",
          "type": "bytes32"
        }
      ],
      "name": "debug",
      "type": "event"
    },
    {
      "constant": false,
      "inputs": [
        {
          "name": "_providerAddr",
          "type": "address"
        },
        {
          "name": "_name",
          "type": "bytes32"
        },
        {
          "name": "_description",
          "type": "bytes32"
        },
        {
          "name": "_imageUrl",
          "type": "bytes32"
        },
        {
          "name": "_apiURI",
          "type": "bytes32"
        }
      ],
      "name": "addProvider",
      "outputs": [
        {
          "name": "success",
          "type": "bool"
        }
      ],
      "payable": false,
      "stateMutability": "nonpayable",
      "type": "function"
    },
    {
      "constant": false,
      "inputs": [
        {
          "name": "_providerAddr",
          "type": "address"
        },
        {
          "name": "_reading",
          "type": "uint32[5][]"
        }
      ],
      "name": "addReading",
      "outputs": [
        {
          "name": "success",
          "type": "bool"
        }
      ],
      "payable": false,
      "stateMutability": "nonpayable",
      "type": "function"
    },
    {
      "constant": false,
      "inputs": [
        {
          "name": "_patron",
          "type": "address"
        }
      ],
      "name": "fund",
      "outputs": [
        {
          "name": "success",
          "type": "bool"
        }
      ],
      "payable": true,
      "stateMutability": "payable",
      "type": "function"
    },
    {
      "constant": true,
      "inputs": [
        {
          "name": "_providerAddr",
          "type": "address"
        },
        {
          "name": "_index",
          "type": "uint256"
        }
      ],
      "name": "getProviderReading",
      "outputs": [
        {
          "name": "reading",
          "type": "uint32[5]"
        }
      ],
      "payable": false,
      "stateMutability": "view",
      "type": "function"
    },
    {
      "constant": true,
      "inputs": [
        {
          "name": "_providerAddr",
          "type": "address"
        }
      ],
      "name": "getProviderReadingCount",
      "outputs": [
        {
          "name": "count",
          "type": "uint256"
        }
      ],
      "payable": false,
      "stateMutability": "view",
      "type": "function"
    },
    {
      "constant": true,
      "inputs": [
        {
          "name": "_providerAddr",
          "type": "address"
        }
      ],
      "name": "getProviderName",
      "outputs": [
        {
          "name": "name",
          "type": "bytes32"
        }
      ],
      "payable": false,
      "stateMutability": "view",
      "type": "function"
    },
    {
      "constant": false,
      "inputs": [],
      "name": "suspendProject",
      "outputs": [],
      "payable": false,
      "stateMutability": "nonpayable",
      "type": "function"
    },
    {
      "constant": false,
      "inputs": [],
      "name": "resumeProject",
      "outputs": [],
      "payable": false,
      "stateMutability": "nonpayable",
      "type": "function"
    }
  ],
  "bytecode": "0x6060604052341561000f57600080fd5b604051606080610f0a83398101604052808051906020019091908051906020019091908051906020019091905050826000806101000a81548173ffffffffffffffffffffffffffffffffffffffff021916908373ffffffffffffffffffffffffffffffffffffffff1602179055508160018190555080600281600019169055506000600560006101000a81548160ff021916908360028111156100ae57fe5b0217905550505050610e45806100c56000396000f3006060604052600436106100c5576000357c0100000000000000000000000000000000000000000000000000000000900463ffffffff16806323024408146100d257806331b8ff8e1461011857806345c0c3851461012d5780634fe5bea7146101fa5780637943210e1461024757806387f0f785146102705780639125218d146102855780639a33e3001461030a578063a4475ce41461033b578063ad2c566e14610390578063c19d93fb1461040e578063e73bdd4714610445578063f0d3e74f1461049a575b34156100d057600080fd5b005b6100fe600480803573ffffffffffffffffffffffffffffffffffffffff169060200190919050506104e7565b604051808215151515815260200191505060405180910390f35b341561012357600080fd5b61012b610574565b005b341561013857600080fd5b6101e0600480803573ffffffffffffffffffffffffffffffffffffffff169060200190919080359060200190820180359060200190808060200260200160405190810160405280939291908181526020016000905b828210156101d257848483905060a00201600580602002604051908101604052809291908260056020028082843782019150505050508152602001906001019061018d565b50505050509190505061062b565b604051808215151515815260200191505060405180910390f35b341561020557600080fd5b610231600480803573ffffffffffffffffffffffffffffffffffffffff16906020019091905050610849565b6040518082815260200191505060405180910390f35b341561025257600080fd5b61025a610898565b6040518082815260200191505060405180910390f35b341561027b57600080fd5b61028361089e565b005b341561029057600080fd5b6102f0600480803573ffffffffffffffffffffffffffffffffffffffff1690602001909190803560001916906020019091908035600019169060200190919080356000191690602001909190803560001916906020019091905050610955565b604051808215151515815260200191505060405180910390f35b341561031557600080fd5b61031d610aeb565b60405180826000191660001916815260200191505060405180910390f35b341561034657600080fd5b61034e610af1565b604051808273ffffffffffffffffffffffffffffffffffffffff1673ffffffffffffffffffffffffffffffffffffffff16815260200191505060405180910390f35b341561039b57600080fd5b6103d0600480803573ffffffffffffffffffffffffffffffffffffffff16906020019091908035906020019091905050610b16565b6040518082600560200280838360005b838110156103fb5780820151818401526020810190506103e0565b5050505090500191505060405180910390f35b341561041957600080fd5b610421610c3f565b6040518082600281111561043157fe5b60ff16815260200191505060405180910390f35b341561045057600080fd5b61047c600480803573ffffffffffffffffffffffffffffffffffffffff16906020019091905050610c52565b60405180826000191660001916815260200191505060405180910390f35b34156104a557600080fd5b6104d1600480803573ffffffffffffffffffffffffffffffffffffffff16906020019091905050610c9e565b6040518082815260200191505060405180910390f35b6000808060028111156104f657fe5b600560009054906101000a900460ff16600281111561051157fe5b14151561051d57600080fd5b34600460008573ffffffffffffffffffffffffffffffffffffffff1673ffffffffffffffffffffffffffffffffffffffff168152602001908152602001600020600082825401925050819055506001915050919050565b3373ffffffffffffffffffffffffffffffffffffffff166000809054906101000a900473ffffffffffffffffffffffffffffffffffffffff1673ffffffffffffffffffffffffffffffffffffffff161415156105cf57600080fd5b60008060028111156105dd57fe5b600560009054906101000a900460ff1660028111156105f857fe5b14151561060457600080fd5b6002600560006101000a81548160ff0219169083600281111561062357fe5b021790555050565b600080836000600102600360008373ffffffffffffffffffffffffffffffffffffffff1673ffffffffffffffffffffffffffffffffffffffff16815260200190815260200160002060040154600019161415151561068857600080fd5b600091505b83518260ff16101561083d57600360008673ffffffffffffffffffffffffffffffffffffffff1673ffffffffffffffffffffffffffffffffffffffff16815260200190815260200160002060000180548060010182816106ed9190610cb6565b91600052602060002090016000868560ff1681518110151561070b57fe5b906020019060200201519091909150906005610728929190610ce2565b5050838260ff1681518110151561073b57fe5b90602001906020020151600360058110151561075357fe5b602002015163ffffffff16600360008773ffffffffffffffffffffffffffffffffffffffff1673ffffffffffffffffffffffffffffffffffffffff16815260200190815260200160002060010160008282540192505081905550838260ff168151811015156107be57fe5b9060200190602002015160046005811015156107d657fe5b602002015163ffffffff16600360008773ffffffffffffffffffffffffffffffffffffffff1673ffffffffffffffffffffffffffffffffffffffff16815260200190815260200160002060020160008282540192505081905550818060010192505061068d565b60019250505092915050565b6000600360008373ffffffffffffffffffffffffffffffffffffffff1673ffffffffffffffffffffffffffffffffffffffff168152602001908152602001600020600001805490509050919050565b60015481565b3373ffffffffffffffffffffffffffffffffffffffff166000809054906101000a900473ffffffffffffffffffffffffffffffffffffffff1673ffffffffffffffffffffffffffffffffffffffff161415156108f957600080fd5b600280600281111561090757fe5b600560009054906101000a900460ff16600281111561092257fe5b14151561092e57600080fd5b6000600560006101000a81548160ff0219169083600281111561094d57fe5b021790555050565b60003373ffffffffffffffffffffffffffffffffffffffff166000809054906101000a900473ffffffffffffffffffffffffffffffffffffffff1673ffffffffffffffffffffffffffffffffffffffff161415156109b257600080fd5b84600360008873ffffffffffffffffffffffffffffffffffffffff1673ffffffffffffffffffffffffffffffffffffffff168152602001908152602001600020600401816000191690555083600360008873ffffffffffffffffffffffffffffffffffffffff1673ffffffffffffffffffffffffffffffffffffffff168152602001908152602001600020600501816000191690555082600360008873ffffffffffffffffffffffffffffffffffffffff1673ffffffffffffffffffffffffffffffffffffffff168152602001908152602001600020600601816000191690555081600360008873ffffffffffffffffffffffffffffffffffffffff1673ffffffffffffffffffffffffffffffffffffffff16815260200190815260200160002060070181600019169055506001905095945050505050565b60025481565b6000809054906101000a900473ffffffffffffffffffffffffffffffffffffffff1681565b610b1e610d85565b6001600360008573ffffffffffffffffffffffffffffffffffffffff1673ffffffffffffffffffffffffffffffffffffffff16815260200190815260200160002060000180549050038211151515610b7557600080fd5b600360008473ffffffffffffffffffffffffffffffffffffffff1673ffffffffffffffffffffffffffffffffffffffff16815260200190815260200160002060000182815481101515610bc457fe5b9060005260206000209001600580602002604051908101604052809291908260058015610c32576020028201916000905b82829054906101000a900463ffffffff1663ffffffff1681526020019060040190602082600301049283019260010382029150808411610bf55790505b5050505050905092915050565b600560009054906101000a900460ff1681565b6000600360008373ffffffffffffffffffffffffffffffffffffffff1673ffffffffffffffffffffffffffffffffffffffff168152602001908152602001600020600401549050919050565b60046020528060005260406000206000915090505481565b815481835581811511610cdd57818360005260206000209182019101610cdc9190610db3565b5b505050565b826005600701600890048101928215610d745791602002820160005b83821115610d4257835183826101000a81548163ffffffff021916908363ffffffff1602179055509260200192600401602081600301049283019260010302610cfe565b8015610d725782816101000a81549063ffffffff0219169055600401602081600301049283019260010302610d42565b505b509050610d819190610ddf565b5090565b60a0604051908101604052806005905b600063ffffffff16815260200190600190039081610d955790505090565b610ddc91905b80821115610dd85760008181610dcf9190610e12565b50600101610db9565b5090565b90565b610e0f91905b80821115610e0b57600081816101000a81549063ffffffff021916905550600101610de5565b5090565b90565b50600090555600a165627a7a72305820027208aa78ddced3efabf5cd43ceb4e23b4349d1a5cabbf89a8f42ee513194230029",
  "source": "pragma solidity ^0.4.19;\n\n\ncontract Project {\n\n    address public projectOwner;\n    uint256 public pledgedAmount;\n    bytes32 public projectName;\n\n    struct ProviderStruct {\n        uint32[5][] readings;\n        uint256 totalBoughtTk;\n        uint256 totalRechargeAmountTk;\n        uint256 donationsReceivedTk;\n        bytes32 name;\n        bytes32 description;\n        bytes32 imageUrl;\n        bytes32 apiURI;\n    }\n\n    mapping(address => ProviderStruct) provider;\n    mapping(address => uint) public patronage;\n\n    enum State { Running, Expired, Suspended }\n    State public state;\n\n    modifier inState(State _state) {require(state == _state); _;}\n    modifier isOwner() {require(projectOwner == msg.sender); _;}\n    modifier isProvider(address _providerAddr) {require(provider[_providerAddr].name != 0x00); _;}\n\n    event debug(address _addr, uint256 _uint, bytes32 _bytes32);\n\n    //fallback\n    function() public {\n\n    }\n\n    //constructor\n    // gas 1113854 txCost; 804286 exCost;\n    // \"0xca35b7d915458ef540ade6068dfe2f44e8fa733c\", 90000, \"Help Bangladesh Farming Village\"\n    function Project(\n        address _projectOwner,\n        uint256 _pledgedAmount,\n        bytes32 _projectName)\n        public\n    {\n        projectOwner = _projectOwner;\n        pledgedAmount = _pledgedAmount;\n        projectName = _projectName;\n        state = State.Running;\n    }\n\n    // \"0xca35b7d915458ef540ade6068dfe2f44e8fa733c\", \"Solshare\", \"Solshare Bangladesh\", \"http://test.com/logo.jpg\", \"http://test.com/api/\"\n    // gas 109207 txCost;81471 exCost;\n    function addProvider(\n        address _providerAddr,\n        bytes32 _name,\n        bytes32 _description,\n        bytes32 _imageUrl,\n        bytes32 _apiURI)\n        public\n        isOwner\n        returns(bool success)\n    {\n        provider[_providerAddr].name = _name;\n        provider[_providerAddr].description = _description;\n        provider[_providerAddr].imageUrl = _imageUrl;\n        provider[_providerAddr].apiURI = _apiURI;\n\n        // debug(msg.sender, 0, 0);\n        return true;\n    }\n\n    //new reading stub. depending on frequency, could be a case for state channels;\n    // \"0xca35b7d915458ef540ade6068dfe2f44e8fa733c\", [[1,1,1,1,1], [2,2,2,2,2]]\n    // _reading[i][0] = solGridID\n    // _reading[i][1] = gridID\n    // _reading[i][2] = monthBoughtWh\n    // _reading[i][3] = monthBoughtTk\n    // _reading[i][4] = rechargeAmountTk\n    // gas 221739 txCost; 196755 exCost;\n    function addReading(\n        address _providerAddr,\n        uint32[5][] _reading)\n        public\n        isProvider(_providerAddr)\n        returns (bool success)\n    {\n        for (uint8 i = 0; i < _reading.length; i ++) {\n            provider[_providerAddr].readings.push(_reading[i]);\n            provider[_providerAddr].totalBoughtTk += _reading[i][3];\n            provider[_providerAddr].totalRechargeAmountTk += _reading[i][4];\n        }\n\n        return true;\n    }\n\n    //available to anyone the project\n    function fund(address _patron)\n        public\n        inState(State.Running)\n        payable\n        returns (bool success)\n    {\n        patronage[_patron] += msg.value;\n\n        return true;\n    }\n\n    // \"0xca35b7d915458ef540ade6068dfe2f44e8fa733c\", 0\n    function getProviderReading(address _providerAddr, uint _index)\n        external\n        view\n        returns(uint32[5] reading)\n    {\n        require(_index <= provider[_providerAddr].readings.length-1);\n\n        return provider[_providerAddr].readings[_index];\n    }\n\n    // \"0xca35b7d915458ef540ade6068dfe2f44e8fa733c\"\n    function getProviderReadingCount(address _providerAddr)\n        external\n        view\n        returns(uint count)\n    {\n        return provider[_providerAddr].readings.length;\n    }\n\n    function getProviderName(address _providerAddr)\n        external\n        view\n        returns(bytes32 name)\n    {\n        return provider[_providerAddr].name;\n    }\n\n\n    function suspendProject()\n        external\n        isOwner\n        inState(State.Running)\n    {\n        state = State.Suspended;\n    }\n\n    function resumeProject()\n        external\n        isOwner\n        inState(State.Suspended)\n    {\n      state = State.Running;\n    }\n\n}\n",
  "sourcePath": "/Users/Shared/freeelio/contracts/Project.sol",
  "compiler": {
    "name": "solc",
    "version": "0.4.19+commit.c4cbbb05.Emscripten.clang"
  },
  "schemaVersion": "2.0.0",
  "updatedAt": "2018-03-27T18:36:11.891Z"
}